{
  "_format": "hh-sol-artifact-1",
  "contractName": "Voting",
  "sourceName": "contracts/Voting.sol",
  "abi": [
    {
      "inputs": [
        {
          "internalType": "address",
          "name": "_kycProvider",
          "type": "address"
        }
      ],
      "stateMutability": "nonpayable",
      "type": "constructor"
    },
    {
      "anonymous": false,
      "inputs": [
        {
          "indexed": true,
          "internalType": "uint256",
          "name": "electionId",
          "type": "uint256"
        },
        {
          "indexed": false,
          "internalType": "string",
          "name": "name",
          "type": "string"
        },
        {
          "indexed": false,
          "internalType": "enum Voting.SybilResistanceMethod",
          "name": "method",
          "type": "uint8"
        }
      ],
      "name": "ElectionCreated",
      "type": "event"
    },
    {
      "anonymous": false,
      "inputs": [
        {
          "indexed": true,
          "internalType": "bytes32",
          "name": "role",
          "type": "bytes32"
        },
        {
          "indexed": true,
          "internalType": "bytes32",
          "name": "previousAdminRole",
          "type": "bytes32"
        },
        {
          "indexed": true,
          "internalType": "bytes32",
          "name": "newAdminRole",
          "type": "bytes32"
        }
      ],
      "name": "RoleAdminChanged",
      "type": "event"
    },
    {
      "anonymous": false,
      "inputs": [
        {
          "indexed": true,
          "internalType": "bytes32",
          "name": "role",
          "type": "bytes32"
        },
        {
          "indexed": true,
          "internalType": "address",
          "name": "account",
          "type": "address"
        },
        {
          "indexed": true,
          "internalType": "address",
          "name": "sender",
          "type": "address"
        }
      ],
      "name": "RoleGranted",
      "type": "event"
    },
    {
      "anonymous": false,
      "inputs": [
        {
          "indexed": true,
          "internalType": "bytes32",
          "name": "role",
          "type": "bytes32"
        },
        {
          "indexed": true,
          "internalType": "address",
          "name": "account",
          "type": "address"
        },
        {
          "indexed": true,
          "internalType": "address",
          "name": "sender",
          "type": "address"
        }
      ],
      "name": "RoleRevoked",
      "type": "event"
    },
    {
      "anonymous": false,
      "inputs": [
        {
          "indexed": true,
          "internalType": "uint256",
          "name": "electionId",
          "type": "uint256"
        },
        {
          "indexed": false,
          "internalType": "address",
          "name": "tokenAddress",
          "type": "address"
        },
        {
          "indexed": false,
          "internalType": "uint256",
          "name": "minBalance",
          "type": "uint256"
        }
      ],
      "name": "TokenRequirementAdded",
      "type": "event"
    },
    {
      "anonymous": false,
      "inputs": [
        {
          "indexed": true,
          "internalType": "uint256",
          "name": "electionId",
          "type": "uint256"
        },
        {
          "indexed": true,
          "internalType": "address",
          "name": "voter",
          "type": "address"
        },
        {
          "indexed": false,
          "internalType": "uint256",
          "name": "candidateIndex",
          "type": "uint256"
        }
      ],
      "name": "VoteCast",
      "type": "event"
    },
    {
      "anonymous": false,
      "inputs": [
        {
          "indexed": true,
          "internalType": "uint256",
          "name": "electionId",
          "type": "uint256"
        },
        {
          "indexed": true,
          "internalType": "address",
          "name": "voter",
          "type": "address"
        }
      ],
      "name": "VoterRegistered",
      "type": "event"
    },
    {
      "inputs": [],
      "name": "ADMIN_ROLE",
      "outputs": [
        {
          "internalType": "bytes32",
          "name": "",
          "type": "bytes32"
        }
      ],
      "stateMutability": "view",
      "type": "function"
    },
    {
      "inputs": [],
      "name": "DEFAULT_ADMIN_ROLE",
      "outputs": [
        {
          "internalType": "bytes32",
          "name": "",
          "type": "bytes32"
        }
      ],
      "stateMutability": "view",
      "type": "function"
    },
    {
      "inputs": [],
      "name": "VERIFIER_ROLE",
      "outputs": [
        {
          "internalType": "bytes32",
          "name": "",
          "type": "bytes32"
        }
      ],
      "stateMutability": "view",
      "type": "function"
    },
    {
      "inputs": [
        {
          "internalType": "uint256",
          "name": "electionId",
          "type": "uint256"
        },
        {
          "internalType": "string",
          "name": "_name",
          "type": "string"
        }
      ],
      "name": "addCandidate",
      "outputs": [],
      "stateMutability": "nonpayable",
      "type": "function"
    },
    {
      "inputs": [
        {
          "internalType": "uint256",
          "name": "electionId",
          "type": "uint256"
        },
        {
          "internalType": "address",
          "name": "_voter",
          "type": "address"
        }
      ],
      "name": "addEligibleVoter",
      "outputs": [],
      "stateMutability": "nonpayable",
      "type": "function"
    },
    {
      "inputs": [
        {
          "internalType": "uint256",
          "name": "electionId",
          "type": "uint256"
        },
        {
          "internalType": "address",
          "name": "tokenAddress",
          "type": "address"
        },
        {
          "internalType": "uint256",
          "name": "minBalance",
          "type": "uint256"
        },
        {
          "internalType": "bool",
          "name": "isNFT",
          "type": "bool"
        }
      ],
      "name": "addTokenRequirement",
      "outputs": [],
      "stateMutability": "nonpayable",
      "type": "function"
    },
    {
      "inputs": [
        {
          "internalType": "uint256",
          "name": "electionId",
          "type": "uint256"
        },
        {
          "internalType": "address[]",
          "name": "voters",
          "type": "address[]"
        }
      ],
      "name": "batchVerifyKYC",
      "outputs": [],
      "stateMutability": "nonpayable",
      "type": "function"
    },
    {
      "inputs": [
        {
          "internalType": "uint256",
          "name": "electionId",
          "type": "uint256"
        },
        {
          "internalType": "address",
          "name": "voter",
          "type": "address"
        }
      ],
      "name": "checkTokenRequirements",
      "outputs": [
        {
          "internalType": "bool",
          "name": "",
          "type": "bool"
        }
      ],
      "stateMutability": "view",
      "type": "function"
    },
    {
      "inputs": [
        {
          "internalType": "uint256",
          "name": "electionId",
          "type": "uint256"
        },
        {
          "internalType": "address",
          "name": "voter",
          "type": "address"
        }
      ],
      "name": "checkVoterEligibility",
      "outputs": [
        {
          "internalType": "bool",
          "name": "",
          "type": "bool"
        }
      ],
      "stateMutability": "view",
      "type": "function"
    },
    {
      "inputs": [
        {
          "internalType": "uint256",
          "name": "",
          "type": "uint256"
        }
      ],
      "name": "elections",
      "outputs": [
        {
          "internalType": "string",
          "name": "name",
          "type": "string"
        },
        {
          "internalType": "bool",
          "name": "active",
          "type": "bool"
        },
        {
          "internalType": "uint256",
          "name": "startTime",
          "type": "uint256"
        },
        {
          "internalType": "uint256",
          "name": "endTime",
          "type": "uint256"
        },
        {
          "internalType": "enum Voting.SybilResistanceMethod",
          "name": "sybilMethod",
          "type": "uint8"
        }
      ],
      "stateMutability": "view",
      "type": "function"
    },
    {
      "inputs": [
        {
          "internalType": "uint256",
          "name": "electionId",
          "type": "uint256"
        }
      ],
      "name": "endElection",
      "outputs": [],
      "stateMutability": "nonpayable",
      "type": "function"
    },
    {
      "inputs": [],
      "name": "getActiveElections",
      "outputs": [
        {
          "internalType": "uint256[]",
          "name": "",
          "type": "uint256[]"
        },
        {
          "internalType": "string[]",
          "name": "",
          "type": "string[]"
        }
      ],
      "stateMutability": "view",
      "type": "function"
    },
    {
      "inputs": [],
      "name": "getAllElections",
      "outputs": [
        {
          "internalType": "uint256[]",
          "name": "",
          "type": "uint256[]"
        },
        {
          "internalType": "string[]",
          "name": "",
          "type": "string[]"
        },
        {
          "internalType": "bool[]",
          "name": "",
          "type": "bool[]"
        }
      ],
      "stateMutability": "view",
      "type": "function"
    },
    {
      "inputs": [
        {
          "internalType": "uint256",
          "name": "electionId",
          "type": "uint256"
        }
      ],
      "name": "getAllVotesOfCandidates",
      "outputs": [
        {
          "internalType": "string[]",
          "name": "",
          "type": "string[]"
        },
        {
          "internalType": "uint256[]",
          "name": "",
          "type": "uint256[]"
        }
      ],
      "stateMutability": "view",
      "type": "function"
    },
    {
      "inputs": [
        {
          "internalType": "uint256",
          "name": "electionId",
          "type": "uint256"
        }
      ],
      "name": "getElectionDetails",
      "outputs": [
        {
          "internalType": "string",
          "name": "name",
          "type": "string"
        },
        {
          "internalType": "bool",
          "name": "active",
          "type": "bool"
        },
        {
          "internalType": "uint256",
          "name": "startTime",
          "type": "uint256"
        },
        {
          "internalType": "uint256",
          "name": "endTime",
          "type": "uint256"
        },
        {
          "internalType": "enum Voting.SybilResistanceMethod",
          "name": "sybilMethod",
          "type": "uint8"
        },
        {
          "internalType": "uint256",
          "name": "candidateCount",
          "type": "uint256"
        }
      ],
      "stateMutability": "view",
      "type": "function"
    },
    {
      "inputs": [
        {
          "internalType": "bytes32",
          "name": "role",
          "type": "bytes32"
        }
      ],
      "name": "getRoleAdmin",
      "outputs": [
        {
          "internalType": "bytes32",
          "name": "",
          "type": "bytes32"
        }
      ],
      "stateMutability": "view",
      "type": "function"
    },
    {
      "inputs": [
        {
          "internalType": "uint256",
          "name": "electionId",
          "type": "uint256"
        }
      ],
      "name": "getTokenRequirements",
      "outputs": [
        {
          "internalType": "address[]",
          "name": "",
          "type": "address[]"
        },
        {
          "internalType": "uint256[]",
          "name": "",
          "type": "uint256[]"
        },
        {
          "internalType": "bool[]",
          "name": "",
          "type": "bool[]"
        }
      ],
      "stateMutability": "view",
      "type": "function"
    },
    {
      "inputs": [
        {
          "internalType": "bytes32",
          "name": "role",
          "type": "bytes32"
        },
        {
          "internalType": "address",
          "name": "account",
          "type": "address"
        }
      ],
      "name": "grantRole",
      "outputs": [],
      "stateMutability": "nonpayable",
      "type": "function"
    },
    {
      "inputs": [
        {
          "internalType": "bytes32",
          "name": "role",
          "type": "bytes32"
        },
        {
          "internalType": "address",
          "name": "account",
          "type": "address"
        }
      ],
      "name": "hasRole",
      "outputs": [
        {
          "internalType": "bool",
          "name": "",
          "type": "bool"
        }
      ],
      "stateMutability": "view",
      "type": "function"
    },
    {
      "inputs": [],
      "name": "kycProvider",
      "outputs": [
        {
          "internalType": "address",
          "name": "",
          "type": "address"
        }
      ],
      "stateMutability": "view",
      "type": "function"
    },
    {
      "inputs": [
        {
          "internalType": "address",
          "name": "",
          "type": "address"
        }
      ],
      "name": "kycTimestamp",
      "outputs": [
        {
          "internalType": "uint256",
          "name": "",
          "type": "uint256"
        }
      ],
      "stateMutability": "view",
      "type": "function"
    },
    {
      "inputs": [],
      "name": "nextElectionId",
      "outputs": [
        {
          "internalType": "uint256",
          "name": "",
          "type": "uint256"
        }
      ],
      "stateMutability": "view",
      "type": "function"
    },
    {
      "inputs": [
        {
          "internalType": "bytes32",
          "name": "role",
          "type": "bytes32"
        },
        {
          "internalType": "address",
          "name": "account",
          "type": "address"
        }
      ],
      "name": "renounceRole",
      "outputs": [],
      "stateMutability": "nonpayable",
      "type": "function"
    },
    {
      "inputs": [
        {
          "internalType": "bytes32",
          "name": "role",
          "type": "bytes32"
        },
        {
          "internalType": "address",
          "name": "account",
          "type": "address"
        }
      ],
      "name": "revokeRole",
      "outputs": [],
      "stateMutability": "nonpayable",
      "type": "function"
    },
    {
      "inputs": [
        {
          "internalType": "string",
          "name": "_name",
          "type": "string"
        },
        {
          "internalType": "enum Voting.SybilResistanceMethod",
          "name": "_sybilMethod",
          "type": "uint8"
        }
      ],
      "name": "startElection",
      "outputs": [],
      "stateMutability": "nonpayable",
      "type": "function"
    },
    {
      "inputs": [
        {
          "internalType": "bytes4",
          "name": "interfaceId",
          "type": "bytes4"
        }
      ],
      "name": "supportsInterface",
      "outputs": [
        {
          "internalType": "bool",
          "name": "",
          "type": "bool"
        }
      ],
      "stateMutability": "view",
      "type": "function"
    },
    {
      "inputs": [
        {
          "internalType": "string",
          "name": "",
          "type": "string"
        }
      ],
      "name": "usedElectionNames",
      "outputs": [
        {
          "internalType": "bool",
          "name": "",
          "type": "bool"
        }
      ],
      "stateMutability": "view",
      "type": "function"
    },
    {
      "inputs": [
        {
          "internalType": "uint256",
          "name": "electionId",
          "type": "uint256"
        },
        {
          "internalType": "address",
          "name": "voter",
          "type": "address"
        }
      ],
      "name": "verifyKYC",
      "outputs": [],
      "stateMutability": "nonpayable",
      "type": "function"
    },
    {
      "inputs": [
        {
          "internalType": "uint256",
          "name": "electionId",
          "type": "uint256"
        },
        {
          "internalType": "uint256",
          "name": "candidateIndex",
          "type": "uint256"
        }
      ],
      "name": "vote",
      "outputs": [],
      "stateMutability": "nonpayable",
      "type": "function"
    }
  ],
  "bytecode": "0x608060405234801561001057600080fd5b506040516145b23803806145b2833981810160405281019061003291906102b4565b6001808190555061004c6000801b336100f360201b60201c565b61007c7fa49807205ce4d355092ef5a8a18f56e8913cf4a201fbe287825b095693c21775336100f360201b60201c565b6100ac7f0ce23c3e399818cfee81a7ab0880f714e53d7672b08df0fa62f2843416e1ea09336100f360201b60201c565b80600560006101000a81548173ffffffffffffffffffffffffffffffffffffffff021916908373ffffffffffffffffffffffffffffffffffffffff160217905550506102e1565b61010382826101df60201b60201c565b6101db57600160008084815260200190815260200160002060000160008373ffffffffffffffffffffffffffffffffffffffff1673ffffffffffffffffffffffffffffffffffffffff16815260200190815260200160002060006101000a81548160ff02191690831515021790555061018061024960201b60201c565b73ffffffffffffffffffffffffffffffffffffffff168173ffffffffffffffffffffffffffffffffffffffff16837f2f8788117e7eff1d82e926ec794901d17c78024a50270940304540a733656f0d60405160405180910390a45b5050565b600080600084815260200190815260200160002060000160008373ffffffffffffffffffffffffffffffffffffffff1673ffffffffffffffffffffffffffffffffffffffff16815260200190815260200160002060009054906101000a900460ff16905092915050565b600033905090565b600080fd5b600073ffffffffffffffffffffffffffffffffffffffff82169050919050565b600061028182610256565b9050919050565b61029181610276565b811461029c57600080fd5b50565b6000815190506102ae81610288565b92915050565b6000602082840312156102ca576102c9610251565b5b60006102d88482850161029f565b91505092915050565b6142c2806102f06000396000f3fe608060405234801561001057600080fd5b50600436106101cf5760003560e01c80638a3b63b011610104578063beca56e5116100a2578063ed53ef4611610071578063ed53ef4614610570578063ef27a67f1461058c578063eff04cb8146105a8578063f6049924146105c4576101cf565b8063beca56e5146104ea578063c20e5e0b14610506578063d547741f14610536578063e7705db614610552576101cf565b80639d7713b3116100de5780639d7713b314610461578063a217fddf14610492578063a26c786f146104b0578063b384abef146104ce576101cf565b80638a3b63b0146103f657806391d14854146104155780639c98bcbb14610445576101cf565b80634050c267116101715780635ecfe3311161014b5780635ecfe3311461036c5780635ef41f441461038857806375b238fc146103b85780637fd5f268146103d6576101cf565b80634050c267146102e85780635313837b1461031a5780635e6fef0114610338576101cf565b80631cad6954116101ad5780631cad695414610250578063248a9ca3146102805780632f2ff15d146102b057806336568abe146102cc576101cf565b806301ffc9a7146101d45780631750a3d0146102045780631b4962d914610220575b600080fd5b6101ee60048036038101906101e99190612b08565b6105f9565b6040516101fb9190612b50565b60405180910390f35b61021e60048036038101906102199190612ce7565b610673565b005b61023a60048036038101906102359190612da1565b61077c565b6040516102479190612b50565b60405180910390f35b61026a60048036038101906102659190612de1565b6109dc565b6040516102779190612e1d565b60405180910390f35b61029a60048036038101906102959190612e6e565b6109f4565b6040516102a79190612eaa565b60405180910390f35b6102ca60048036038101906102c59190612ec5565b610a13565b005b6102e660048036038101906102e19190612ec5565b610a34565b005b61030260048036038101906102fd9190612f05565b610ab7565b6040516103119392919061316c565b60405180910390f35b610322610d2a565b60405161032f9190612e1d565b60405180910390f35b610352600480360381019061034d9190612f05565b610d30565b6040516103639594939291906132ae565b60405180910390f35b6103866004803603810190610381919061332d565b610e08565b005b6103a2600480360381019061039d9190613389565b610fac565b6040516103af9190612b50565b60405180910390f35b6103c0610fe2565b6040516103cd9190612eaa565b60405180910390f35b6103de611006565b6040516103ed939291906134de565b60405180910390f35b6103fe61124f565b60405161040c92919061352a565b60405180910390f35b61042f600480360381019061042a9190612ec5565b611484565b60405161043c9190612b50565b60405180910390f35b61045f600480360381019061045a9190612f05565b6114ee565b005b61047b60048036038101906104769190612f05565b6115c9565b604051610489929190613561565b60405180910390f35b61049a6117cb565b6040516104a79190612eaa565b60405180910390f35b6104b86117d2565b6040516104c591906135a7565b60405180910390f35b6104e860048036038101906104e391906135c2565b6117f8565b005b61050460048036038101906104ff9190612da1565b611a7c565b005b610520600480360381019061051b9190612da1565b611b17565b60405161052d9190612b50565b60405180910390f35b610550600480360381019061054b9190612ec5565b611cb1565b005b61055a611cd2565b6040516105679190612eaa565b60405180910390f35b61058a6004803603810190610585919061362e565b611cf6565b005b6105a660048036038101906105a19190612da1565b611ec4565b005b6105c260048036038101906105bd91906136f5565b61210f565b005b6105de60048036038101906105d99190612f05565b612413565b6040516105f096959493929190613755565b60405180910390f35b60007f7965db0b000000000000000000000000000000000000000000000000000000007bffffffffffffffffffffffffffffffffffffffffffffffffffffffff1916827bffffffffffffffffffffffffffffffffffffffffffffffffffffffff1916148061066c575061066b8261250f565b5b9050919050565b7fa49807205ce4d355092ef5a8a18f56e8913cf4a201fbe287825b095693c2177561069d81612579565b6003600084815260200190815260200160002060010160009054906101000a900460ff16610700576040517f08c379a00000000000000000000000000000000000000000000000000000000081526004016106f790613809565b60405180910390fd5b60036000848152602001908152602001600020600401604051806040016040528084815260200160008152509080600181540180825580915050600190039060005260206000209060020201600090919091909150600082015181600001908161076a9190613a35565b50602082015181600101555050505050565b600080600360008581526020019081526020016000209050600160028111156107a8576107a7613237565b5b8160070160009054906101000a900460ff1660028111156107cc576107cb613237565b5b146107db5760019150506109d6565b60008160080180549050036107f45760019150506109d6565b60005b81600801805490508110156109cf57600082600801828154811061081e5761081d613b07565b5b906000526020600020906003020190508060020160009054906101000a900460ff16156109055760008160000160009054906101000a900473ffffffffffffffffffffffffffffffffffffffff16905081600101548173ffffffffffffffffffffffffffffffffffffffff166370a08231886040518263ffffffff1660e01b81526004016108ac91906135a7565b602060405180830381865afa1580156108c9573d6000803e3d6000fd5b505050506040513d601f19601f820116820180604052508101906108ed9190613b4b565b106108ff5760019450505050506109d6565b506109c1565b60008160000160009054906101000a900473ffffffffffffffffffffffffffffffffffffffff16905081600101548173ffffffffffffffffffffffffffffffffffffffff166370a08231886040518263ffffffff1660e01b815260040161096c91906135a7565b602060405180830381865afa158015610989573d6000803e3d6000fd5b505050506040513d601f19601f820116820180604052508101906109ad9190613b4b565b106109bf5760019450505050506109d6565b505b5080806001019150506107f7565b5060009150505b92915050565b60066020528060005260406000206000915090505481565b6000806000838152602001908152602001600020600101549050919050565b610a1c826109f4565b610a2581612579565b610a2f838361258d565b505050565b610a3c61266d565b73ffffffffffffffffffffffffffffffffffffffff168173ffffffffffffffffffffffffffffffffffffffff1614610aa9576040517f08c379a0000000000000000000000000000000000000000000000000000000008152600401610aa090613bea565b60405180910390fd5b610ab38282612675565b5050565b6060806060600060036000868152602001908152602001600020905060008160080180549050905060008167ffffffffffffffff811115610afb57610afa612bbc565b5b604051908082528060200260200182016040528015610b295781602001602082028036833780820191505090505b50905060008267ffffffffffffffff811115610b4857610b47612bbc565b5b604051908082528060200260200182016040528015610b765781602001602082028036833780820191505090505b50905060008367ffffffffffffffff811115610b9557610b94612bbc565b5b604051908082528060200260200182016040528015610bc35781602001602082028036833780820191505090505b50905060005b84811015610d1457856008018181548110610be757610be6613b07565b5b906000526020600020906003020160000160009054906101000a900473ffffffffffffffffffffffffffffffffffffffff16848281518110610c2c57610c2b613b07565b5b602002602001019073ffffffffffffffffffffffffffffffffffffffff16908173ffffffffffffffffffffffffffffffffffffffff1681525050856008018181548110610c7c57610c7b613b07565b5b906000526020600020906003020160010154838281518110610ca157610ca0613b07565b5b602002602001018181525050856008018181548110610cc357610cc2613b07565b5b906000526020600020906003020160020160009054906101000a900460ff16828281518110610cf557610cf4613b07565b5b6020026020010190151590811515815250508080600101915050610bc9565b5082828297509750975050505050509193909250565b60025481565b6003602052806000526040600020600091509050806000018054610d5390613858565b80601f0160208091040260200160405190810160405280929190818152602001828054610d7f90613858565b8015610dcc5780601f10610da157610100808354040283529160200191610dcc565b820191906000526020600020905b815481529060010190602001808311610daf57829003601f168201915b5050505050908060010160009054906101000a900460ff16908060020154908060030154908060070160009054906101000a900460ff16905085565b7fa49807205ce4d355092ef5a8a18f56e8913cf4a201fbe287825b095693c21775610e3281612579565b600483604051610e429190613c46565b908152602001604051809103902060009054906101000a900460ff1615610e9e576040517f08c379a0000000000000000000000000000000000000000000000000000000008152600401610e9590613ca9565b60405180910390fd5b6000600360006002548152602001908152602001600020905083816000019081610ec89190613a35565b5060018160010160006101000a81548160ff021916908315150217905550428160020181905550828160070160006101000a81548160ff02191690836002811115610f1657610f15613237565b5b02179055506001600485604051610f2d9190613c46565b908152602001604051809103902060006101000a81548160ff0219169083151502179055506002547fb27f00d8a527d4c76a28a32e3d1bd228da7d30d4e2e57fa2f1c59de53fcb5c068585604051610f86929190613cc9565b60405180910390a260026000815480929190610fa190613d28565b919050555050505050565b6004818051602081018201805184825260208301602085012081835280955050505050506000915054906101000a900460ff1681565b7fa49807205ce4d355092ef5a8a18f56e8913cf4a201fbe287825b095693c2177581565b6060806060600060025467ffffffffffffffff81111561102957611028612bbc565b5b6040519080825280602002602001820160405280156110575781602001602082028036833780820191505090505b509050600060025467ffffffffffffffff81111561107857611077612bbc565b5b6040519080825280602002602001820160405280156110ab57816020015b60608152602001906001900390816110965790505b509050600060025467ffffffffffffffff8111156110cc576110cb612bbc565b5b6040519080825280602002602001820160405280156110fa5781602001602082028036833780820191505090505b50905060005b60025481101561123d578084828151811061111e5761111d613b07565b5b60200260200101818152505060036000828152602001908152602001600020600001805461114b90613858565b80601f016020809104026020016040519081016040528092919081815260200182805461117790613858565b80156111c45780601f10611199576101008083540402835291602001916111c4565b820191906000526020600020905b8154815290600101906020018083116111a757829003601f168201915b50505050508382815181106111dc576111db613b07565b5b60200260200101819052506003600082815260200190815260200160002060010160009054906101000a900460ff1682828151811061121e5761121d613b07565b5b6020026020010190151590811515815250508080600101915050611100565b50828282955095509550505050909192565b6060806000805b6002548110156112a5576003600082815260200190815260200160002060010160009054906101000a900460ff161561129857818061129490613d28565b9250505b8080600101915050611256565b5060008167ffffffffffffffff8111156112c2576112c1612bbc565b5b6040519080825280602002602001820160405280156112f05781602001602082028036833780820191505090505b50905060008267ffffffffffffffff81111561130f5761130e612bbc565b5b60405190808252806020026020018201604052801561134257816020015b606081526020019060019003908161132d5790505b5090506000805b600254811015611475576003600082815260200190815260200160002060010160009054906101000a900460ff161561146857808483815181106113905761138f613b07565b5b6020026020010181815250506003600082815260200190815260200160002060000180546113bd90613858565b80601f01602080910402602001604051908101604052809291908181526020018280546113e990613858565b80156114365780601f1061140b57610100808354040283529160200191611436565b820191906000526020600020905b81548152906001019060200180831161141957829003601f168201915b505050505083838151811061144e5761144d613b07565b5b6020026020010181905250818061146490613d28565b9250505b8080600101915050611349565b50828295509550505050509091565b600080600084815260200190815260200160002060000160008373ffffffffffffffffffffffffffffffffffffffff1673ffffffffffffffffffffffffffffffffffffffff16815260200190815260200160002060009054906101000a900460ff16905092915050565b7fa49807205ce4d355092ef5a8a18f56e8913cf4a201fbe287825b095693c2177561151881612579565b6003600083815260200190815260200160002060010160009054906101000a900460ff1661157b576040517f08c379a000000000000000000000000000000000000000000000000000000000815260040161157290613809565b60405180910390fd5b60006003600084815260200190815260200160002060010160006101000a81548160ff0219169083151502179055504260036000848152602001908152602001600020600301819055505050565b606080600060036000858152602001908152602001600020905060008160040180549050905060008167ffffffffffffffff81111561160b5761160a612bbc565b5b60405190808252806020026020018201604052801561163e57816020015b60608152602001906001900390816116295790505b50905060008267ffffffffffffffff81111561165d5761165c612bbc565b5b60405190808252806020026020018201604052801561168b5781602001602082028036833780820191505090505b50905060005b838110156117bb578460040181815481106116af576116ae613b07565b5b906000526020600020906002020160000180546116cb90613858565b80601f01602080910402602001604051908101604052809291908181526020018280546116f790613858565b80156117445780601f1061171957610100808354040283529160200191611744565b820191906000526020600020905b81548152906001019060200180831161172757829003601f168201915b505050505083828151811061175c5761175b613b07565b5b602002602001018190525084600401818154811061177d5761177c613b07565b5b9060005260206000209060020201600101548282815181106117a2576117a1613b07565b5b6020026020010181815250508080600101915050611691565b5081819550955050505050915091565b6000801b81565b600560009054906101000a900473ffffffffffffffffffffffffffffffffffffffff1681565b611800612756565b60006003600084815260200190815260200160002090508060010160009054906101000a900460ff16611868576040517f08c379a000000000000000000000000000000000000000000000000000000000815260040161185f90613dbc565b60405180910390fd5b8060060160003373ffffffffffffffffffffffffffffffffffffffff1673ffffffffffffffffffffffffffffffffffffffff16815260200190815260200160002060009054906101000a900460ff16156118f7576040517f08c379a00000000000000000000000000000000000000000000000000000000081526004016118ee90613e28565b60405180910390fd5b80600401805490508210611940576040517f08c379a000000000000000000000000000000000000000000000000000000000815260040161193790613e94565b60405180910390fd5b61194a8333611b17565b611989576040517f08c379a000000000000000000000000000000000000000000000000000000000815260040161198090613f00565b60405180910390fd5b80600401828154811061199f5761199e613b07565b5b906000526020600020906002020160010160008154809291906119c190613d28565b919050555060018160060160003373ffffffffffffffffffffffffffffffffffffffff1673ffffffffffffffffffffffffffffffffffffffff16815260200190815260200160002060006101000a81548160ff0219169083151502179055503373ffffffffffffffffffffffffffffffffffffffff16837f2acce567deca3aabf56327adbb4524bd5318936eaefa69e3a5208ffda0cfec0984604051611a679190612e1d565b60405180910390a350611a786127a5565b5050565b7fa49807205ce4d355092ef5a8a18f56e8913cf4a201fbe287825b095693c21775611aa681612579565b60016003600085815260200190815260200160002060050160008473ffffffffffffffffffffffffffffffffffffffff1673ffffffffffffffffffffffffffffffffffffffff16815260200190815260200160002060006101000a81548160ff021916908315150217905550505050565b60008060036000858152602001908152602001600020905060006002811115611b4357611b42613237565b5b8160070160009054906101000a900460ff166002811115611b6757611b66613237565b5b03611bc3578060050160008473ffffffffffffffffffffffffffffffffffffffff1673ffffffffffffffffffffffffffffffffffffffff16815260200190815260200160002060009054906101000a900460ff16915050611cab565b60016002811115611bd757611bd6613237565b5b8160070160009054906101000a900460ff166002811115611bfb57611bfa613237565b5b03611c1257611c0a848461077c565b915050611cab565b600280811115611c2557611c24613237565b5b8160070160009054906101000a900460ff166002811115611c4957611c48613237565b5b03611ca5578060090160008473ffffffffffffffffffffffffffffffffffffffff1673ffffffffffffffffffffffffffffffffffffffff16815260200190815260200160002060009054906101000a900460ff16915050611cab565b60009150505b92915050565b611cba826109f4565b611cc381612579565b611ccd8383612675565b505050565b7f0ce23c3e399818cfee81a7ab0880f714e53d7672b08df0fa62f2843416e1ea0981565b7fa49807205ce4d355092ef5a8a18f56e8913cf4a201fbe287825b095693c21775611d2081612579565b600060036000878152602001908152602001600020905060016002811115611d4b57611d4a613237565b5b8160070160009054906101000a900460ff166002811115611d6f57611d6e613237565b5b14611daf576040517f08c379a0000000000000000000000000000000000000000000000000000000008152600401611da690613f6c565b60405180910390fd5b8060080160405180606001604052808773ffffffffffffffffffffffffffffffffffffffff168152602001868152602001851515815250908060018154018082558091505060019003906000526020600020906003020160009091909190915060008201518160000160006101000a81548173ffffffffffffffffffffffffffffffffffffffff021916908373ffffffffffffffffffffffffffffffffffffffff1602179055506020820151816001015560408201518160020160006101000a81548160ff0219169083151502179055505050857fcf90241ffc7818219c9bb43ed67754bbb6835bb16874cb3b784e361900b1df1d8686604051611eb4929190613f8c565b60405180910390a2505050505050565b7f0ce23c3e399818cfee81a7ab0880f714e53d7672b08df0fa62f2843416e1ea09611eee81612579565b60006003600085815260200190815260200160002090508060010160009054906101000a900460ff16611f56576040517f08c379a0000000000000000000000000000000000000000000000000000000008152600401611f4d90613809565b60405180910390fd5b600280811115611f6957611f68613237565b5b8160070160009054906101000a900460ff166002811115611f8d57611f8c613237565b5b14611fcd576040517f08c379a0000000000000000000000000000000000000000000000000000000008152600401611fc490614001565b60405180910390fd5b60018160090160008573ffffffffffffffffffffffffffffffffffffffff1673ffffffffffffffffffffffffffffffffffffffff16815260200190815260200160002060006101000a81548160ff02191690831515021790555060018160050160008573ffffffffffffffffffffffffffffffffffffffff1673ffffffffffffffffffffffffffffffffffffffff16815260200190815260200160002060006101000a81548160ff02191690831515021790555042600660008573ffffffffffffffffffffffffffffffffffffffff1673ffffffffffffffffffffffffffffffffffffffff168152602001908152602001600020819055508273ffffffffffffffffffffffffffffffffffffffff16847ff45b8429c36d478f9a6d081c4811a819b98aa5b608588bed9d406405cf28247360405160405180910390a350505050565b7f0ce23c3e399818cfee81a7ab0880f714e53d7672b08df0fa62f2843416e1ea0961213981612579565b60006003600086815260200190815260200160002090508060010160009054906101000a900460ff166121a1576040517f08c379a000000000000000000000000000000000000000000000000000000000815260040161219890613809565b60405180910390fd5b6002808111156121b4576121b3613237565b5b8160070160009054906101000a900460ff1660028111156121d8576121d7613237565b5b14612218576040517f08c379a000000000000000000000000000000000000000000000000000000000815260040161220f90614001565b60405180910390fd5b60005b8484905081101561240b57600182600901600087878581811061224157612240613b07565b5b90506020020160208101906122569190612de1565b73ffffffffffffffffffffffffffffffffffffffff1673ffffffffffffffffffffffffffffffffffffffff16815260200190815260200160002060006101000a81548160ff02191690831515021790555060018260050160008787858181106122c2576122c1613b07565b5b90506020020160208101906122d79190612de1565b73ffffffffffffffffffffffffffffffffffffffff1673ffffffffffffffffffffffffffffffffffffffff16815260200190815260200160002060006101000a81548160ff02191690831515021790555042600660008787858181106123405761233f613b07565b5b90506020020160208101906123559190612de1565b73ffffffffffffffffffffffffffffffffffffffff1673ffffffffffffffffffffffffffffffffffffffff168152602001908152602001600020819055508484828181106123a6576123a5613b07565b5b90506020020160208101906123bb9190612de1565b73ffffffffffffffffffffffffffffffffffffffff16867ff45b8429c36d478f9a6d081c4811a819b98aa5b608588bed9d406405cf28247360405160405180910390a3808060010191505061221b565b505050505050565b6060600080600080600080600360008981526020019081526020016000209050806000018160010160009054906101000a900460ff16826002015483600301548460070160009054906101000a900460ff16856004018054905085805461247990613858565b80601f01602080910402602001604051908101604052809291908181526020018280546124a590613858565b80156124f25780601f106124c7576101008083540402835291602001916124f2565b820191906000526020600020905b8154815290600101906020018083116124d557829003601f168201915b505050505095509650965096509650965096505091939550919395565b60007f01ffc9a7000000000000000000000000000000000000000000000000000000007bffffffffffffffffffffffffffffffffffffffffffffffffffffffff1916827bffffffffffffffffffffffffffffffffffffffffffffffffffffffff1916149050919050565b61258a8161258561266d565b6127ae565b50565b6125978282611484565b61266957600160008084815260200190815260200160002060000160008373ffffffffffffffffffffffffffffffffffffffff1673ffffffffffffffffffffffffffffffffffffffff16815260200190815260200160002060006101000a81548160ff02191690831515021790555061260e61266d565b73ffffffffffffffffffffffffffffffffffffffff168173ffffffffffffffffffffffffffffffffffffffff16837f2f8788117e7eff1d82e926ec794901d17c78024a50270940304540a733656f0d60405160405180910390a45b5050565b600033905090565b61267f8282611484565b1561275257600080600084815260200190815260200160002060000160008373ffffffffffffffffffffffffffffffffffffffff1673ffffffffffffffffffffffffffffffffffffffff16815260200190815260200160002060006101000a81548160ff0219169083151502179055506126f761266d565b73ffffffffffffffffffffffffffffffffffffffff168173ffffffffffffffffffffffffffffffffffffffff16837ff6391f5c32d9c69d2a47ea670b442974b53935d1edc7fd64eb21e047a839171b60405160405180910390a45b5050565b60026001540361279b576040517f08c379a00000000000000000000000000000000000000000000000000000000081526004016127929061406d565b60405180910390fd5b6002600181905550565b60018081905550565b6127b88282611484565b61282f576127c581612833565b6127d38360001c6020612860565b6040516020016127e4929190614125565b6040516020818303038152906040526040517f08c379a0000000000000000000000000000000000000000000000000000000008152600401612826919061415f565b60405180910390fd5b5050565b60606128598273ffffffffffffffffffffffffffffffffffffffff16601460ff16612860565b9050919050565b6060600060028360026128739190614181565b61287d91906141c3565b67ffffffffffffffff81111561289657612895612bbc565b5b6040519080825280601f01601f1916602001820160405280156128c85781602001600182028036833780820191505090505b5090507f300000000000000000000000000000000000000000000000000000000000000081600081518110612900576128ff613b07565b5b60200101907effffffffffffffffffffffffffffffffffffffffffffffffffffffffffffff1916908160001a9053507f78000000000000000000000000000000000000000000000000000000000000008160018151811061296457612963613b07565b5b60200101907effffffffffffffffffffffffffffffffffffffffffffffffffffffffffffff1916908160001a905350600060018460026129a49190614181565b6129ae91906141c3565b90505b6001811115612a4e577f3031323334353637383961626364656600000000000000000000000000000000600f8616601081106129f0576129ef613b07565b5b1a60f81b828281518110612a0757612a06613b07565b5b60200101907effffffffffffffffffffffffffffffffffffffffffffffffffffffffffffff1916908160001a905350600485901c945080612a47906141f7565b90506129b1565b5060008414612a92576040517f08c379a0000000000000000000000000000000000000000000000000000000008152600401612a899061426c565b60405180910390fd5b8091505092915050565b6000604051905090565b600080fd5b600080fd5b60007fffffffff0000000000000000000000000000000000000000000000000000000082169050919050565b612ae581612ab0565b8114612af057600080fd5b50565b600081359050612b0281612adc565b92915050565b600060208284031215612b1e57612b1d612aa6565b5b6000612b2c84828501612af3565b91505092915050565b60008115159050919050565b612b4a81612b35565b82525050565b6000602082019050612b656000830184612b41565b92915050565b6000819050919050565b612b7e81612b6b565b8114612b8957600080fd5b50565b600081359050612b9b81612b75565b92915050565b600080fd5b600080fd5b6000601f19601f8301169050919050565b7f4e487b7100000000000000000000000000000000000000000000000000000000600052604160045260246000fd5b612bf482612bab565b810181811067ffffffffffffffff82111715612c1357612c12612bbc565b5b80604052505050565b6000612c26612a9c565b9050612c328282612beb565b919050565b600067ffffffffffffffff821115612c5257612c51612bbc565b5b612c5b82612bab565b9050602081019050919050565b82818337600083830152505050565b6000612c8a612c8584612c37565b612c1c565b905082815260208101848484011115612ca657612ca5612ba6565b5b612cb1848285612c68565b509392505050565b600082601f830112612cce57612ccd612ba1565b5b8135612cde848260208601612c77565b91505092915050565b60008060408385031215612cfe57612cfd612aa6565b5b6000612d0c85828601612b8c565b925050602083013567ffffffffffffffff811115612d2d57612d2c612aab565b5b612d3985828601612cb9565b9150509250929050565b600073ffffffffffffffffffffffffffffffffffffffff82169050919050565b6000612d6e82612d43565b9050919050565b612d7e81612d63565b8114612d8957600080fd5b50565b600081359050612d9b81612d75565b92915050565b60008060408385031215612db857612db7612aa6565b5b6000612dc685828601612b8c565b9250506020612dd785828601612d8c565b9150509250929050565b600060208284031215612df757612df6612aa6565b5b6000612e0584828501612d8c565b91505092915050565b612e1781612b6b565b82525050565b6000602082019050612e326000830184612e0e565b92915050565b6000819050919050565b612e4b81612e38565b8114612e5657600080fd5b50565b600081359050612e6881612e42565b92915050565b600060208284031215612e8457612e83612aa6565b5b6000612e9284828501612e59565b91505092915050565b612ea481612e38565b82525050565b6000602082019050612ebf6000830184612e9b565b92915050565b60008060408385031215612edc57612edb612aa6565b5b6000612eea85828601612e59565b9250506020612efb85828601612d8c565b9150509250929050565b600060208284031215612f1b57612f1a612aa6565b5b6000612f2984828501612b8c565b91505092915050565b600081519050919050565b600082825260208201905092915050565b6000819050602082019050919050565b612f6781612d63565b82525050565b6000612f798383612f5e565b60208301905092915050565b6000602082019050919050565b6000612f9d82612f32565b612fa78185612f3d565b9350612fb283612f4e565b8060005b83811015612fe3578151612fca8882612f6d565b9750612fd583612f85565b925050600181019050612fb6565b5085935050505092915050565b600081519050919050565b600082825260208201905092915050565b6000819050602082019050919050565b61302581612b6b565b82525050565b6000613037838361301c565b60208301905092915050565b6000602082019050919050565b600061305b82612ff0565b6130658185612ffb565b93506130708361300c565b8060005b838110156130a1578151613088888261302b565b975061309383613043565b925050600181019050613074565b5085935050505092915050565b600081519050919050565b600082825260208201905092915050565b6000819050602082019050919050565b6130e381612b35565b82525050565b60006130f583836130da565b60208301905092915050565b6000602082019050919050565b6000613119826130ae565b61312381856130b9565b935061312e836130ca565b8060005b8381101561315f57815161314688826130e9565b975061315183613101565b925050600181019050613132565b5085935050505092915050565b600060608201905081810360008301526131868186612f92565b9050818103602083015261319a8185613050565b905081810360408301526131ae818461310e565b9050949350505050565b600081519050919050565b600082825260208201905092915050565b60005b838110156131f25780820151818401526020810190506131d7565b60008484015250505050565b6000613209826131b8565b61321381856131c3565b93506132238185602086016131d4565b61322c81612bab565b840191505092915050565b7f4e487b7100000000000000000000000000000000000000000000000000000000600052602160045260246000fd5b6003811061327757613276613237565b5b50565b600081905061328882613266565b919050565b60006132988261327a565b9050919050565b6132a88161328d565b82525050565b600060a08201905081810360008301526132c881886131fe565b90506132d76020830187612b41565b6132e46040830186612e0e565b6132f16060830185612e0e565b6132fe608083018461329f565b9695505050505050565b6003811061331557600080fd5b50565b60008135905061332781613308565b92915050565b6000806040838503121561334457613343612aa6565b5b600083013567ffffffffffffffff81111561336257613361612aab565b5b61336e85828601612cb9565b925050602061337f85828601613318565b9150509250929050565b60006020828403121561339f5761339e612aa6565b5b600082013567ffffffffffffffff8111156133bd576133bc612aab565b5b6133c984828501612cb9565b91505092915050565b600081519050919050565b600082825260208201905092915050565b6000819050602082019050919050565b600082825260208201905092915050565b600061341a826131b8565b61342481856133fe565b93506134348185602086016131d4565b61343d81612bab565b840191505092915050565b6000613454838361340f565b905092915050565b6000602082019050919050565b6000613474826133d2565b61347e81856133dd565b935083602082028501613490856133ee565b8060005b858110156134cc57848403895281516134ad8582613448565b94506134b88361345c565b925060208a01995050600181019050613494565b50829750879550505050505092915050565b600060608201905081810360008301526134f88186613050565b9050818103602083015261350c8185613469565b90508181036040830152613520818461310e565b9050949350505050565b600060408201905081810360008301526135448185613050565b905081810360208301526135588184613469565b90509392505050565b6000604082019050818103600083015261357b8185613469565b9050818103602083015261358f8184613050565b90509392505050565b6135a181612d63565b82525050565b60006020820190506135bc6000830184613598565b92915050565b600080604083850312156135d9576135d8612aa6565b5b60006135e785828601612b8c565b92505060206135f885828601612b8c565b9150509250929050565b61360b81612b35565b811461361657600080fd5b50565b60008135905061362881613602565b92915050565b6000806000806080858703121561364857613647612aa6565b5b600061365687828801612b8c565b945050602061366787828801612d8c565b935050604061367887828801612b8c565b925050606061368987828801613619565b91505092959194509250565b600080fd5b600080fd5b60008083601f8401126136b5576136b4612ba1565b5b8235905067ffffffffffffffff8111156136d2576136d1613695565b5b6020830191508360208202830111156136ee576136ed61369a565b5b9250929050565b60008060006040848603121561370e5761370d612aa6565b5b600061371c86828701612b8c565b935050602084013567ffffffffffffffff81111561373d5761373c612aab565b5b6137498682870161369f565b92509250509250925092565b600060c082019050818103600083015261376f81896131fe565b905061377e6020830188612b41565b61378b6040830187612e0e565b6137986060830186612e0e565b6137a5608083018561329f565b6137b260a0830184612e0e565b979650505050505050565b7f456c656374696f6e206e6f742061637469766500000000000000000000000000600082015250565b60006137f36013836131c3565b91506137fe826137bd565b602082019050919050565b60006020820190508181036000830152613822816137e6565b9050919050565b7f4e487b7100000000000000000000000000000000000000000000000000000000600052602260045260246000fd5b6000600282049050600182168061387057607f821691505b60208210810361388357613882613829565b5b50919050565b60008190508160005260206000209050919050565b60006020601f8301049050919050565b600082821b905092915050565b6000600883026138eb7fffffffffffffffffffffffffffffffffffffffffffffffffffffffffffffffff826138ae565b6138f586836138ae565b95508019841693508086168417925050509392505050565b6000819050919050565b600061393261392d61392884612b6b565b61390d565b612b6b565b9050919050565b6000819050919050565b61394c83613917565b61396061395882613939565b8484546138bb565b825550505050565b600090565b613975613968565b613980818484613943565b505050565b5b818110156139a45761399960008261396d565b600181019050613986565b5050565b601f8211156139e9576139ba81613889565b6139c38461389e565b810160208510156139d2578190505b6139e66139de8561389e565b830182613985565b50505b505050565b600082821c905092915050565b6000613a0c600019846008026139ee565b1980831691505092915050565b6000613a2583836139fb565b9150826002028217905092915050565b613a3e826131b8565b67ffffffffffffffff811115613a5757613a56612bbc565b5b613a618254613858565b613a6c8282856139a8565b600060209050601f831160018114613a9f5760008415613a8d578287015190505b613a978582613a19565b865550613aff565b601f198416613aad86613889565b60005b82811015613ad557848901518255600182019150602085019450602081019050613ab0565b86831015613af25784890151613aee601f8916826139fb565b8355505b6001600288020188555050505b505050505050565b7f4e487b7100000000000000000000000000000000000000000000000000000000600052603260045260246000fd5b600081519050613b4581612b75565b92915050565b600060208284031215613b6157613b60612aa6565b5b6000613b6f84828501613b36565b91505092915050565b7f416363657373436f6e74726f6c3a2063616e206f6e6c792072656e6f756e636560008201527f20726f6c657320666f722073656c660000000000000000000000000000000000602082015250565b6000613bd4602f836131c3565b9150613bdf82613b78565b604082019050919050565b60006020820190508181036000830152613c0381613bc7565b9050919050565b600081905092915050565b6000613c20826131b8565b613c2a8185613c0a565b9350613c3a8185602086016131d4565b80840191505092915050565b6000613c528284613c15565b915081905092915050565b7f456c656374696f6e206e616d6520616c72656164792075736564000000000000600082015250565b6000613c93601a836131c3565b9150613c9e82613c5d565b602082019050919050565b60006020820190508181036000830152613cc281613c86565b9050919050565b60006040820190508181036000830152613ce381856131fe565b9050613cf2602083018461329f565b9392505050565b7f4e487b7100000000000000000000000000000000000000000000000000000000600052601160045260246000fd5b6000613d3382612b6b565b91507fffffffffffffffffffffffffffffffffffffffffffffffffffffffffffffffff8203613d6557613d64613cf9565b5b600182019050919050565b7f456c656374696f6e206973206e6f742061637469766500000000000000000000600082015250565b6000613da66016836131c3565b9150613db182613d70565b602082019050919050565b60006020820190508181036000830152613dd581613d99565b9050919050565b7f416c726561647920766f74656400000000000000000000000000000000000000600082015250565b6000613e12600d836131c3565b9150613e1d82613ddc565b602082019050919050565b60006020820190508181036000830152613e4181613e05565b9050919050565b7f496e76616c69642063616e646964617465000000000000000000000000000000600082015250565b6000613e7e6011836131c3565b9150613e8982613e48565b602082019050919050565b60006020820190508181036000830152613ead81613e71565b9050919050565b7f4e6f7420656c696769626c6520746f20766f7465000000000000000000000000600082015250565b6000613eea6014836131c3565b9150613ef582613eb4565b602082019050919050565b60006020820190508181036000830152613f1981613edd565b9050919050565b7f57726f6e6720737962696c206d6574686f640000000000000000000000000000600082015250565b6000613f566012836131c3565b9150613f6182613f20565b602082019050919050565b60006020820190508181036000830152613f8581613f49565b9050919050565b6000604082019050613fa16000830185613598565b613fae6020830184612e0e565b9392505050565b7f4b5943206e6f7420656e61626c65640000000000000000000000000000000000600082015250565b6000613feb600f836131c3565b9150613ff682613fb5565b602082019050919050565b6000602082019050818103600083015261401a81613fde565b9050919050565b7f5265656e7472616e637947756172643a207265656e7472616e742063616c6c00600082015250565b6000614057601f836131c3565b915061406282614021565b602082019050919050565b600060208201905081810360008301526140868161404a565b9050919050565b7f416363657373436f6e74726f6c3a206163636f756e7420000000000000000000600082015250565b60006140c3601783613c0a565b91506140ce8261408d565b601782019050919050565b7f206973206d697373696e6720726f6c6520000000000000000000000000000000600082015250565b600061410f601183613c0a565b915061411a826140d9565b601182019050919050565b6000614130826140b6565b915061413c8285613c15565b915061414782614102565b91506141538284613c15565b91508190509392505050565b6000602082019050818103600083015261417981846131fe565b905092915050565b600061418c82612b6b565b915061419783612b6b565b92508282026141a581612b6b565b915082820484148315176141bc576141bb613cf9565b5b5092915050565b60006141ce82612b6b565b91506141d983612b6b565b92508282019050808211156141f1576141f0613cf9565b5b92915050565b600061420282612b6b565b91506000820361421557614214613cf9565b5b600182039050919050565b7f537472696e67733a20686578206c656e67746820696e73756666696369656e74600082015250565b60006142566020836131c3565b915061426182614220565b602082019050919050565b6000602082019050818103600083015261428581614249565b905091905056fea2646970667358221220c133b591f51e1eba5fd77df7e8ecb26e4c312a9bea4cdb8b621b52f18c6d575b64736f6c634300081c0033",
  "linkReferences": {},
  "deployedLinkReferences": {}
}