{
  "_format": "hh-sol-artifact-1",
  "contractName": "Voting",
  "sourceName": "contracts/Voting.sol",
  "abi": [
    {
      "inputs": [],
      "stateMutability": "nonpayable",
      "type": "constructor"
    },
    {
      "inputs": [],
      "name": "AccessControlBadConfirmation",
      "type": "error"
    },
    {
      "inputs": [
        {
          "internalType": "address",
          "name": "account",
          "type": "address"
        },
        {
          "internalType": "bytes32",
          "name": "neededRole",
          "type": "bytes32"
        }
      ],
      "name": "AccessControlUnauthorizedAccount",
      "type": "error"
    },
    {
      "anonymous": false,
      "inputs": [
        {
          "indexed": true,
          "internalType": "bytes32",
          "name": "role",
          "type": "bytes32"
        },
        {
          "indexed": true,
          "internalType": "bytes32",
          "name": "previousAdminRole",
          "type": "bytes32"
        },
        {
          "indexed": true,
          "internalType": "bytes32",
          "name": "newAdminRole",
          "type": "bytes32"
        }
      ],
      "name": "RoleAdminChanged",
      "type": "event"
    },
    {
      "anonymous": false,
      "inputs": [
        {
          "indexed": true,
          "internalType": "bytes32",
          "name": "role",
          "type": "bytes32"
        },
        {
          "indexed": true,
          "internalType": "address",
          "name": "account",
          "type": "address"
        },
        {
          "indexed": true,
          "internalType": "address",
          "name": "sender",
          "type": "address"
        }
      ],
      "name": "RoleGranted",
      "type": "event"
    },
    {
      "anonymous": false,
      "inputs": [
        {
          "indexed": true,
          "internalType": "bytes32",
          "name": "role",
          "type": "bytes32"
        },
        {
          "indexed": true,
          "internalType": "address",
          "name": "account",
          "type": "address"
        },
        {
          "indexed": true,
          "internalType": "address",
          "name": "sender",
          "type": "address"
        }
      ],
      "name": "RoleRevoked",
      "type": "event"
    },
    {
      "inputs": [],
      "name": "ADMIN_ROLE",
      "outputs": [
        {
          "internalType": "bytes32",
          "name": "",
          "type": "bytes32"
        }
      ],
      "stateMutability": "view",
      "type": "function"
    },
    {
      "inputs": [],
      "name": "DEFAULT_ADMIN_ROLE",
      "outputs": [
        {
          "internalType": "bytes32",
          "name": "",
          "type": "bytes32"
        }
      ],
      "stateMutability": "view",
      "type": "function"
    },
    {
      "inputs": [
        {
          "internalType": "uint256",
          "name": "electionId",
          "type": "uint256"
        },
        {
          "internalType": "string",
          "name": "_name",
          "type": "string"
        }
      ],
      "name": "addCandidate",
      "outputs": [],
      "stateMutability": "nonpayable",
      "type": "function"
    },
    {
      "inputs": [
        {
          "internalType": "uint256",
          "name": "electionId",
          "type": "uint256"
        },
        {
          "internalType": "address",
          "name": "_voter",
          "type": "address"
        }
      ],
      "name": "addEligibleVoter",
      "outputs": [],
      "stateMutability": "nonpayable",
      "type": "function"
    },
    {
      "inputs": [
        {
          "internalType": "uint256",
          "name": "",
          "type": "uint256"
        }
      ],
      "name": "elections",
      "outputs": [
        {
          "internalType": "string",
          "name": "name",
          "type": "string"
        },
        {
          "internalType": "bool",
          "name": "active",
          "type": "bool"
        },
        {
          "internalType": "uint256",
          "name": "startTime",
          "type": "uint256"
        },
        {
          "internalType": "uint256",
          "name": "endTime",
          "type": "uint256"
        }
      ],
      "stateMutability": "view",
      "type": "function"
    },
    {
      "inputs": [
        {
          "internalType": "uint256",
          "name": "electionId",
          "type": "uint256"
        }
      ],
      "name": "endElection",
      "outputs": [],
      "stateMutability": "nonpayable",
      "type": "function"
    },
    {
      "inputs": [],
      "name": "getAllElections",
      "outputs": [
        {
          "internalType": "uint256[]",
          "name": "",
          "type": "uint256[]"
        },
        {
          "internalType": "string[]",
          "name": "",
          "type": "string[]"
        },
        {
          "internalType": "bool[]",
          "name": "",
          "type": "bool[]"
        }
      ],
      "stateMutability": "view",
      "type": "function"
    },
    {
      "inputs": [
        {
          "internalType": "uint256",
          "name": "electionId",
          "type": "uint256"
        }
      ],
      "name": "getAllVotesOfCandidates",
      "outputs": [
        {
          "internalType": "string[]",
          "name": "",
          "type": "string[]"
        },
        {
          "internalType": "uint256[]",
          "name": "",
          "type": "uint256[]"
        }
      ],
      "stateMutability": "view",
      "type": "function"
    },
    {
      "inputs": [
        {
          "internalType": "bytes32",
          "name": "role",
          "type": "bytes32"
        }
      ],
      "name": "getRoleAdmin",
      "outputs": [
        {
          "internalType": "bytes32",
          "name": "",
          "type": "bytes32"
        }
      ],
      "stateMutability": "view",
      "type": "function"
    },
    {
      "inputs": [
        {
          "internalType": "bytes32",
          "name": "role",
          "type": "bytes32"
        },
        {
          "internalType": "address",
          "name": "account",
          "type": "address"
        }
      ],
      "name": "grantRole",
      "outputs": [],
      "stateMutability": "nonpayable",
      "type": "function"
    },
    {
      "inputs": [
        {
          "internalType": "bytes32",
          "name": "role",
          "type": "bytes32"
        },
        {
          "internalType": "address",
          "name": "account",
          "type": "address"
        }
      ],
      "name": "hasRole",
      "outputs": [
        {
          "internalType": "bool",
          "name": "",
          "type": "bool"
        }
      ],
      "stateMutability": "view",
      "type": "function"
    },
    {
      "inputs": [],
      "name": "nextElectionId",
      "outputs": [
        {
          "internalType": "uint256",
          "name": "",
          "type": "uint256"
        }
      ],
      "stateMutability": "view",
      "type": "function"
    },
    {
      "inputs": [
        {
          "internalType": "bytes32",
          "name": "role",
          "type": "bytes32"
        },
        {
          "internalType": "address",
          "name": "callerConfirmation",
          "type": "address"
        }
      ],
      "name": "renounceRole",
      "outputs": [],
      "stateMutability": "nonpayable",
      "type": "function"
    },
    {
      "inputs": [
        {
          "internalType": "bytes32",
          "name": "role",
          "type": "bytes32"
        },
        {
          "internalType": "address",
          "name": "account",
          "type": "address"
        }
      ],
      "name": "revokeRole",
      "outputs": [],
      "stateMutability": "nonpayable",
      "type": "function"
    },
    {
      "inputs": [
        {
          "internalType": "string",
          "name": "_name",
          "type": "string"
        }
      ],
      "name": "startElection",
      "outputs": [],
      "stateMutability": "nonpayable",
      "type": "function"
    },
    {
      "inputs": [
        {
          "internalType": "bytes4",
          "name": "interfaceId",
          "type": "bytes4"
        }
      ],
      "name": "supportsInterface",
      "outputs": [
        {
          "internalType": "bool",
          "name": "",
          "type": "bool"
        }
      ],
      "stateMutability": "view",
      "type": "function"
    },
    {
      "inputs": [
        {
          "internalType": "string",
          "name": "",
          "type": "string"
        }
      ],
      "name": "usedElectionNames",
      "outputs": [
        {
          "internalType": "bool",
          "name": "",
          "type": "bool"
        }
      ],
      "stateMutability": "view",
      "type": "function"
    },
    {
      "inputs": [
        {
          "internalType": "uint256",
          "name": "electionId",
          "type": "uint256"
        },
        {
          "internalType": "uint256",
          "name": "candidateIndex",
          "type": "uint256"
        }
      ],
      "name": "vote",
      "outputs": [],
      "stateMutability": "nonpayable",
      "type": "function"
    },
    {
      "inputs": [],
      "name": "votingActive",
      "outputs": [
        {
          "internalType": "bool",
          "name": "",
          "type": "bool"
        }
      ],
      "stateMutability": "view",
      "type": "function"
    }
  ],
  "bytecode": "0x608060405234801561001057600080fd5b506100246000801b3361005b60201b60201c565b506100557fa49807205ce4d355092ef5a8a18f56e8913cf4a201fbe287825b095693c217753361005b60201b60201c565b506101ca565b600061006d838361015860201b60201c565b61014d57600160008085815260200190815260200160002060000160008473ffffffffffffffffffffffffffffffffffffffff1673ffffffffffffffffffffffffffffffffffffffff16815260200190815260200160002060006101000a81548160ff0219169083151502179055506100ea6101c260201b60201c565b73ffffffffffffffffffffffffffffffffffffffff168273ffffffffffffffffffffffffffffffffffffffff16847f2f8788117e7eff1d82e926ec794901d17c78024a50270940304540a733656f0d60405160405180910390a460019050610152565b600090505b92915050565b600080600084815260200190815260200160002060000160008373ffffffffffffffffffffffffffffffffffffffff1673ffffffffffffffffffffffffffffffffffffffff16815260200190815260200160002060009054906101000a900460ff16905092915050565b600033905090565b6123ed806101d96000396000f3fe608060405234801561001057600080fd5b50600436106101215760003560e01c806375b238fc116100ad578063a217fddf11610071578063a217fddf14610334578063b384abef14610352578063beca56e51461036e578063d547741f1461038a578063f544bed8146103a657610121565b806375b238fc146102795780637fd5f2681461029757806391d14854146102b75780639c98bcbb146102e75780639d7713b31461030357610121565b806336568abe116100f457806336568abe146101be578063408e2727146101da5780635313837b146101f85780635e6fef01146102165780635ef41f441461024957610121565b806301ffc9a7146101265780631750a3d014610156578063248a9ca3146101725780632f2ff15d146101a2575b600080fd5b610140600480360381019061013b9190611490565b6103c2565b60405161014d91906114d8565b60405180910390f35b610170600480360381019061016b919061166f565b61043c565b005b61018c60048036038101906101879190611701565b610545565b604051610199919061173d565b60405180910390f35b6101bc60048036038101906101b791906117b6565b610564565b005b6101d860048036038101906101d391906117b6565b610586565b005b6101e2610601565b6040516101ef91906114d8565b60405180910390f35b61020061064c565b60405161020d9190611805565b60405180910390f35b610230600480360381019061022b9190611820565b610652565b60405161024094939291906118cc565b60405180910390f35b610263600480360381019061025e9190611918565b610717565b60405161027091906114d8565b60405180910390f35b61028161074d565b60405161028e919061173d565b60405180910390f35b61029f610771565b6040516102ae93929190611be9565b60405180910390f35b6102d160048036038101906102cc91906117b6565b6109ba565b6040516102de91906114d8565b60405180910390f35b61030160048036038101906102fc9190611820565b610a24565b005b61031d60048036038101906103189190611820565b610aff565b60405161032b929190611c35565b60405180910390f35b61033c610d01565b604051610349919061173d565b60405180910390f35b61036c60048036038101906103679190611c6c565b610d08565b005b61038860048036038101906103839190611cac565b610f72565b005b6103a4600480360381019061039f91906117b6565b61100d565b005b6103c060048036038101906103bb9190611918565b61102f565b005b60007f7965db0b000000000000000000000000000000000000000000000000000000007bffffffffffffffffffffffffffffffffffffffffffffffffffffffff1916827bffffffffffffffffffffffffffffffffffffffffffffffffffffffff1916148061043557506104348261116a565b5b9050919050565b7fa49807205ce4d355092ef5a8a18f56e8913cf4a201fbe287825b095693c21775610466816111d4565b6002600084815260200190815260200160002060010160009054906101000a900460ff166104c9576040517f08c379a00000000000000000000000000000000000000000000000000000000081526004016104c090611d38565b60405180910390fd5b6002600084815260200190815260200160002060040160405180604001604052808481526020016000815250908060018154018082558091505060019003906000526020600020906002020160009091909190915060008201518160000190816105339190611f64565b50602082015181600101555050505050565b6000806000838152602001908152602001600020600101549050919050565b61056d82610545565b610576816111d4565b61058083836111e8565b50505050565b61058e6112d9565b73ffffffffffffffffffffffffffffffffffffffff168173ffffffffffffffffffffffffffffffffffffffff16146105f2576040517f6697b23200000000000000000000000000000000000000000000000000000000815260040160405180910390fd5b6105fc82826112e1565b505050565b600080600154036106155760009050610649565b60026000600180546106279190612065565b815260200190815260200160002060010160009054906101000a900460ff1690505b90565b60015481565b600260205280600052604060002060009150905080600001805461067590611d87565b80601f01602080910402602001604051908101604052809291908181526020018280546106a190611d87565b80156106ee5780601f106106c3576101008083540402835291602001916106ee565b820191906000526020600020905b8154815290600101906020018083116106d157829003601f168201915b5050505050908060010160009054906101000a900460ff16908060020154908060030154905084565b6003818051602081018201805184825260208301602085012081835280955050505050506000915054906101000a900460ff1681565b7fa49807205ce4d355092ef5a8a18f56e8913cf4a201fbe287825b095693c2177581565b6060806060600060015467ffffffffffffffff81111561079457610793611544565b5b6040519080825280602002602001820160405280156107c25781602001602082028036833780820191505090505b509050600060015467ffffffffffffffff8111156107e3576107e2611544565b5b60405190808252806020026020018201604052801561081657816020015b60608152602001906001900390816108015790505b509050600060015467ffffffffffffffff81111561083757610836611544565b5b6040519080825280602002602001820160405280156108655781602001602082028036833780820191505090505b50905060005b6001548110156109a8578084828151811061088957610888612099565b5b6020026020010181815250506002600082815260200190815260200160002060000180546108b690611d87565b80601f01602080910402602001604051908101604052809291908181526020018280546108e290611d87565b801561092f5780601f106109045761010080835404028352916020019161092f565b820191906000526020600020905b81548152906001019060200180831161091257829003601f168201915b505050505083828151811061094757610946612099565b5b60200260200101819052506002600082815260200190815260200160002060010160009054906101000a900460ff1682828151811061098957610988612099565b5b602002602001019015159081151581525050808060010191505061086b565b50828282955095509550505050909192565b600080600084815260200190815260200160002060000160008373ffffffffffffffffffffffffffffffffffffffff1673ffffffffffffffffffffffffffffffffffffffff16815260200190815260200160002060009054906101000a900460ff16905092915050565b7fa49807205ce4d355092ef5a8a18f56e8913cf4a201fbe287825b095693c21775610a4e816111d4565b6002600083815260200190815260200160002060010160009054906101000a900460ff16610ab1576040517f08c379a0000000000000000000000000000000000000000000000000000000008152600401610aa890611d38565b60405180910390fd5b60006002600084815260200190815260200160002060010160006101000a81548160ff0219169083151502179055504260026000848152602001908152602001600020600301819055505050565b606080600060026000858152602001908152602001600020905060008160040180549050905060008167ffffffffffffffff811115610b4157610b40611544565b5b604051908082528060200260200182016040528015610b7457816020015b6060815260200190600190039081610b5f5790505b50905060008267ffffffffffffffff811115610b9357610b92611544565b5b604051908082528060200260200182016040528015610bc15781602001602082028036833780820191505090505b50905060005b83811015610cf157846004018181548110610be557610be4612099565b5b90600052602060002090600202016000018054610c0190611d87565b80601f0160208091040260200160405190810160405280929190818152602001828054610c2d90611d87565b8015610c7a5780601f10610c4f57610100808354040283529160200191610c7a565b820191906000526020600020905b815481529060010190602001808311610c5d57829003601f168201915b5050505050838281518110610c9257610c91612099565b5b6020026020010181905250846004018181548110610cb357610cb2612099565b5b906000526020600020906002020160010154828281518110610cd857610cd7612099565b5b6020026020010181815250508080600101915050610bc7565b5081819550955050505050915091565b6000801b81565b60006002600084815260200190815260200160002090508060010160009054906101000a900460ff16610d70576040517f08c379a0000000000000000000000000000000000000000000000000000000008152600401610d6790612114565b60405180910390fd5b8060050160003373ffffffffffffffffffffffffffffffffffffffff1673ffffffffffffffffffffffffffffffffffffffff16815260200190815260200160002060009054906101000a900460ff16610dfe576040517f08c379a0000000000000000000000000000000000000000000000000000000008152600401610df590612180565b60405180910390fd5b8060060160003373ffffffffffffffffffffffffffffffffffffffff1673ffffffffffffffffffffffffffffffffffffffff16815260200190815260200160002060009054906101000a900460ff1615610e8d576040517f08c379a0000000000000000000000000000000000000000000000000000000008152600401610e84906121ec565b60405180910390fd5b80600401805490508210610ed6576040517f08c379a0000000000000000000000000000000000000000000000000000000008152600401610ecd90612258565b60405180910390fd5b806004018281548110610eec57610eeb612099565b5b90600052602060002090600202016001016000815480929190610f0e90612278565b919050555060018160060160003373ffffffffffffffffffffffffffffffffffffffff1673ffffffffffffffffffffffffffffffffffffffff16815260200190815260200160002060006101000a81548160ff021916908315150217905550505050565b7fa49807205ce4d355092ef5a8a18f56e8913cf4a201fbe287825b095693c21775610f9c816111d4565b60016002600085815260200190815260200160002060050160008473ffffffffffffffffffffffffffffffffffffffff1673ffffffffffffffffffffffffffffffffffffffff16815260200190815260200160002060006101000a81548160ff021916908315150217905550505050565b61101682610545565b61101f816111d4565b61102983836112e1565b50505050565b7fa49807205ce4d355092ef5a8a18f56e8913cf4a201fbe287825b095693c21775611059816111d4565b60038260405161106991906122fc565b908152602001604051809103902060009054906101000a900460ff16156110c5576040517f08c379a00000000000000000000000000000000000000000000000000000000081526004016110bc9061235f565b60405180910390fd5b60006002600060015481526020019081526020016000209050828160000190816110ef9190611f64565b5060018160010160006101000a81548160ff021916908315150217905550428160020181905550600160038460405161112891906122fc565b908152602001604051809103902060006101000a81548160ff0219169083151502179055506001600081548092919061116090612278565b9190505550505050565b60007f01ffc9a7000000000000000000000000000000000000000000000000000000007bffffffffffffffffffffffffffffffffffffffffffffffffffffffff1916827bffffffffffffffffffffffffffffffffffffffffffffffffffffffff1916149050919050565b6111e5816111e06112d9565b6113d3565b50565b60006111f483836109ba565b6112ce57600160008085815260200190815260200160002060000160008473ffffffffffffffffffffffffffffffffffffffff1673ffffffffffffffffffffffffffffffffffffffff16815260200190815260200160002060006101000a81548160ff02191690831515021790555061126b6112d9565b73ffffffffffffffffffffffffffffffffffffffff168273ffffffffffffffffffffffffffffffffffffffff16847f2f8788117e7eff1d82e926ec794901d17c78024a50270940304540a733656f0d60405160405180910390a4600190506112d3565b600090505b92915050565b600033905090565b60006112ed83836109ba565b156113c857600080600085815260200190815260200160002060000160008473ffffffffffffffffffffffffffffffffffffffff1673ffffffffffffffffffffffffffffffffffffffff16815260200190815260200160002060006101000a81548160ff0219169083151502179055506113656112d9565b73ffffffffffffffffffffffffffffffffffffffff168273ffffffffffffffffffffffffffffffffffffffff16847ff6391f5c32d9c69d2a47ea670b442974b53935d1edc7fd64eb21e047a839171b60405160405180910390a4600190506113cd565b600090505b92915050565b6113dd82826109ba565b6114205780826040517fe2517d3f00000000000000000000000000000000000000000000000000000000815260040161141792919061238e565b60405180910390fd5b5050565b6000604051905090565b600080fd5b600080fd5b60007fffffffff0000000000000000000000000000000000000000000000000000000082169050919050565b61146d81611438565b811461147857600080fd5b50565b60008135905061148a81611464565b92915050565b6000602082840312156114a6576114a561142e565b5b60006114b48482850161147b565b91505092915050565b60008115159050919050565b6114d2816114bd565b82525050565b60006020820190506114ed60008301846114c9565b92915050565b6000819050919050565b611506816114f3565b811461151157600080fd5b50565b600081359050611523816114fd565b92915050565b600080fd5b600080fd5b6000601f19601f8301169050919050565b7f4e487b7100000000000000000000000000000000000000000000000000000000600052604160045260246000fd5b61157c82611533565b810181811067ffffffffffffffff8211171561159b5761159a611544565b5b80604052505050565b60006115ae611424565b90506115ba8282611573565b919050565b600067ffffffffffffffff8211156115da576115d9611544565b5b6115e382611533565b9050602081019050919050565b82818337600083830152505050565b600061161261160d846115bf565b6115a4565b90508281526020810184848401111561162e5761162d61152e565b5b6116398482856115f0565b509392505050565b600082601f83011261165657611655611529565b5b81356116668482602086016115ff565b91505092915050565b600080604083850312156116865761168561142e565b5b600061169485828601611514565b925050602083013567ffffffffffffffff8111156116b5576116b4611433565b5b6116c185828601611641565b9150509250929050565b6000819050919050565b6116de816116cb565b81146116e957600080fd5b50565b6000813590506116fb816116d5565b92915050565b6000602082840312156117175761171661142e565b5b6000611725848285016116ec565b91505092915050565b611737816116cb565b82525050565b6000602082019050611752600083018461172e565b92915050565b600073ffffffffffffffffffffffffffffffffffffffff82169050919050565b600061178382611758565b9050919050565b61179381611778565b811461179e57600080fd5b50565b6000813590506117b08161178a565b92915050565b600080604083850312156117cd576117cc61142e565b5b60006117db858286016116ec565b92505060206117ec858286016117a1565b9150509250929050565b6117ff816114f3565b82525050565b600060208201905061181a60008301846117f6565b92915050565b6000602082840312156118365761183561142e565b5b600061184484828501611514565b91505092915050565b600081519050919050565b600082825260208201905092915050565b60005b8381101561188757808201518184015260208101905061186c565b60008484015250505050565b600061189e8261184d565b6118a88185611858565b93506118b8818560208601611869565b6118c181611533565b840191505092915050565b600060808201905081810360008301526118e68187611893565b90506118f560208301866114c9565b61190260408301856117f6565b61190f60608301846117f6565b95945050505050565b60006020828403121561192e5761192d61142e565b5b600082013567ffffffffffffffff81111561194c5761194b611433565b5b61195884828501611641565b91505092915050565b600081519050919050565b600082825260208201905092915050565b6000819050602082019050919050565b611996816114f3565b82525050565b60006119a8838361198d565b60208301905092915050565b6000602082019050919050565b60006119cc82611961565b6119d6818561196c565b93506119e18361197d565b8060005b83811015611a125781516119f9888261199c565b9750611a04836119b4565b9250506001810190506119e5565b5085935050505092915050565b600081519050919050565b600082825260208201905092915050565b6000819050602082019050919050565b600082825260208201905092915050565b6000611a678261184d565b611a718185611a4b565b9350611a81818560208601611869565b611a8a81611533565b840191505092915050565b6000611aa18383611a5c565b905092915050565b6000602082019050919050565b6000611ac182611a1f565b611acb8185611a2a565b935083602082028501611add85611a3b565b8060005b85811015611b195784840389528151611afa8582611a95565b9450611b0583611aa9565b925060208a01995050600181019050611ae1565b50829750879550505050505092915050565b600081519050919050565b600082825260208201905092915050565b6000819050602082019050919050565b611b60816114bd565b82525050565b6000611b728383611b57565b60208301905092915050565b6000602082019050919050565b6000611b9682611b2b565b611ba08185611b36565b9350611bab83611b47565b8060005b83811015611bdc578151611bc38882611b66565b9750611bce83611b7e565b925050600181019050611baf565b5085935050505092915050565b60006060820190508181036000830152611c0381866119c1565b90508181036020830152611c178185611ab6565b90508181036040830152611c2b8184611b8b565b9050949350505050565b60006040820190508181036000830152611c4f8185611ab6565b90508181036020830152611c6381846119c1565b90509392505050565b60008060408385031215611c8357611c8261142e565b5b6000611c9185828601611514565b9250506020611ca285828601611514565b9150509250929050565b60008060408385031215611cc357611cc261142e565b5b6000611cd185828601611514565b9250506020611ce2858286016117a1565b9150509250929050565b7f456c656374696f6e206e6f742061637469766500000000000000000000000000600082015250565b6000611d22601383611858565b9150611d2d82611cec565b602082019050919050565b60006020820190508181036000830152611d5181611d15565b9050919050565b7f4e487b7100000000000000000000000000000000000000000000000000000000600052602260045260246000fd5b60006002820490506001821680611d9f57607f821691505b602082108103611db257611db1611d58565b5b50919050565b60008190508160005260206000209050919050565b60006020601f8301049050919050565b600082821b905092915050565b600060088302611e1a7fffffffffffffffffffffffffffffffffffffffffffffffffffffffffffffffff82611ddd565b611e248683611ddd565b95508019841693508086168417925050509392505050565b6000819050919050565b6000611e61611e5c611e57846114f3565b611e3c565b6114f3565b9050919050565b6000819050919050565b611e7b83611e46565b611e8f611e8782611e68565b848454611dea565b825550505050565b600090565b611ea4611e97565b611eaf818484611e72565b505050565b5b81811015611ed357611ec8600082611e9c565b600181019050611eb5565b5050565b601f821115611f1857611ee981611db8565b611ef284611dcd565b81016020851015611f01578190505b611f15611f0d85611dcd565b830182611eb4565b50505b505050565b600082821c905092915050565b6000611f3b60001984600802611f1d565b1980831691505092915050565b6000611f548383611f2a565b9150826002028217905092915050565b611f6d8261184d565b67ffffffffffffffff811115611f8657611f85611544565b5b611f908254611d87565b611f9b828285611ed7565b600060209050601f831160018114611fce5760008415611fbc578287015190505b611fc68582611f48565b86555061202e565b601f198416611fdc86611db8565b60005b8281101561200457848901518255600182019150602085019450602081019050611fdf565b86831015612021578489015161201d601f891682611f2a565b8355505b6001600288020188555050505b505050505050565b7f4e487b7100000000000000000000000000000000000000000000000000000000600052601160045260246000fd5b6000612070826114f3565b915061207b836114f3565b925082820390508181111561209357612092612036565b5b92915050565b7f4e487b7100000000000000000000000000000000000000000000000000000000600052603260045260246000fd5b7f456c656374696f6e206973206e6f742061637469766500000000000000000000600082015250565b60006120fe601683611858565b9150612109826120c8565b602082019050919050565b6000602082019050818103600083015261212d816120f1565b9050919050565b7f4e6f7420656c696769626c6520746f20766f7465000000000000000000000000600082015250565b600061216a601483611858565b915061217582612134565b602082019050919050565b600060208201905081810360008301526121998161215d565b9050919050565b7f416c726561647920766f74656400000000000000000000000000000000000000600082015250565b60006121d6600d83611858565b91506121e1826121a0565b602082019050919050565b60006020820190508181036000830152612205816121c9565b9050919050565b7f496e76616c69642063616e646964617465000000000000000000000000000000600082015250565b6000612242601183611858565b915061224d8261220c565b602082019050919050565b6000602082019050818103600083015261227181612235565b9050919050565b6000612283826114f3565b91507fffffffffffffffffffffffffffffffffffffffffffffffffffffffffffffffff82036122b5576122b4612036565b5b600182019050919050565b600081905092915050565b60006122d68261184d565b6122e081856122c0565b93506122f0818560208601611869565b80840191505092915050565b600061230882846122cb565b915081905092915050565b7f456c656374696f6e206e616d6520616c72656164792075736564000000000000600082015250565b6000612349601a83611858565b915061235482612313565b602082019050919050565b600060208201905081810360008301526123788161233c565b9050919050565b61238881611778565b82525050565b60006040820190506123a3600083018561237f565b6123b0602083018461172e565b939250505056fea2646970667358221220babbe601d60c9e296ab129d7739d217b2099893bef1b84eeb44e1880c042d53364736f6c634300081c0033",
  "linkReferences": {},
  "deployedLinkReferences": {}
}