{
  "_format": "hh-sol-artifact-1",
  "contractName": "Voting",
  "sourceName": "contracts/Voting.sol",
  "abi": [
    {
      "inputs": [],
      "stateMutability": "nonpayable",
      "type": "constructor"
    },
    {
      "inputs": [],
      "name": "AccessControlBadConfirmation",
      "type": "error"
    },
    {
      "inputs": [
        {
          "internalType": "address",
          "name": "account",
          "type": "address"
        },
        {
          "internalType": "bytes32",
          "name": "neededRole",
          "type": "bytes32"
        }
      ],
      "name": "AccessControlUnauthorizedAccount",
      "type": "error"
    },
    {
      "anonymous": false,
      "inputs": [
        {
          "indexed": true,
          "internalType": "bytes32",
          "name": "role",
          "type": "bytes32"
        },
        {
          "indexed": true,
          "internalType": "bytes32",
          "name": "previousAdminRole",
          "type": "bytes32"
        },
        {
          "indexed": true,
          "internalType": "bytes32",
          "name": "newAdminRole",
          "type": "bytes32"
        }
      ],
      "name": "RoleAdminChanged",
      "type": "event"
    },
    {
      "anonymous": false,
      "inputs": [
        {
          "indexed": true,
          "internalType": "bytes32",
          "name": "role",
          "type": "bytes32"
        },
        {
          "indexed": true,
          "internalType": "address",
          "name": "account",
          "type": "address"
        },
        {
          "indexed": true,
          "internalType": "address",
          "name": "sender",
          "type": "address"
        }
      ],
      "name": "RoleGranted",
      "type": "event"
    },
    {
      "anonymous": false,
      "inputs": [
        {
          "indexed": true,
          "internalType": "bytes32",
          "name": "role",
          "type": "bytes32"
        },
        {
          "indexed": true,
          "internalType": "address",
          "name": "account",
          "type": "address"
        },
        {
          "indexed": true,
          "internalType": "address",
          "name": "sender",
          "type": "address"
        }
      ],
      "name": "RoleRevoked",
      "type": "event"
    },
    {
      "inputs": [],
      "name": "ADMIN_ROLE",
      "outputs": [
        {
          "internalType": "bytes32",
          "name": "",
          "type": "bytes32"
        }
      ],
      "stateMutability": "view",
      "type": "function"
    },
    {
      "inputs": [],
      "name": "DEFAULT_ADMIN_ROLE",
      "outputs": [
        {
          "internalType": "bytes32",
          "name": "",
          "type": "bytes32"
        }
      ],
      "stateMutability": "view",
      "type": "function"
    },
    {
      "inputs": [
        {
          "internalType": "uint256",
          "name": "electionId",
          "type": "uint256"
        },
        {
          "internalType": "string",
          "name": "_name",
          "type": "string"
        }
      ],
      "name": "addCandidate",
      "outputs": [],
      "stateMutability": "nonpayable",
      "type": "function"
    },
    {
      "inputs": [
        {
          "internalType": "uint256",
          "name": "electionId",
          "type": "uint256"
        },
        {
          "internalType": "address",
          "name": "_voter",
          "type": "address"
        }
      ],
      "name": "addEligibleVoter",
      "outputs": [],
      "stateMutability": "nonpayable",
      "type": "function"
    },
    {
      "inputs": [
        {
          "internalType": "uint256",
          "name": "",
          "type": "uint256"
        }
      ],
      "name": "elections",
      "outputs": [
        {
          "internalType": "string",
          "name": "name",
          "type": "string"
        },
        {
          "internalType": "bool",
          "name": "active",
          "type": "bool"
        },
        {
          "internalType": "uint256",
          "name": "startTime",
          "type": "uint256"
        },
        {
          "internalType": "uint256",
          "name": "endTime",
          "type": "uint256"
        }
      ],
      "stateMutability": "view",
      "type": "function"
    },
    {
      "inputs": [
        {
          "internalType": "uint256",
          "name": "electionId",
          "type": "uint256"
        }
      ],
      "name": "endElection",
      "outputs": [],
      "stateMutability": "nonpayable",
      "type": "function"
    },
    {
      "inputs": [],
      "name": "getAllElections",
      "outputs": [
        {
          "internalType": "uint256[]",
          "name": "",
          "type": "uint256[]"
        },
        {
          "internalType": "string[]",
          "name": "",
          "type": "string[]"
        },
        {
          "internalType": "bool[]",
          "name": "",
          "type": "bool[]"
        }
      ],
      "stateMutability": "view",
      "type": "function"
    },
    {
      "inputs": [
        {
          "internalType": "uint256",
          "name": "electionId",
          "type": "uint256"
        }
      ],
      "name": "getAllVotesOfCandidates",
      "outputs": [
        {
          "internalType": "string[]",
          "name": "",
          "type": "string[]"
        },
        {
          "internalType": "uint256[]",
          "name": "",
          "type": "uint256[]"
        }
      ],
      "stateMutability": "view",
      "type": "function"
    },
    {
      "inputs": [
        {
          "internalType": "bytes32",
          "name": "role",
          "type": "bytes32"
        }
      ],
      "name": "getRoleAdmin",
      "outputs": [
        {
          "internalType": "bytes32",
          "name": "",
          "type": "bytes32"
        }
      ],
      "stateMutability": "view",
      "type": "function"
    },
    {
      "inputs": [
        {
          "internalType": "bytes32",
          "name": "role",
          "type": "bytes32"
        },
        {
          "internalType": "address",
          "name": "account",
          "type": "address"
        }
      ],
      "name": "grantRole",
      "outputs": [],
      "stateMutability": "nonpayable",
      "type": "function"
    },
    {
      "inputs": [
        {
          "internalType": "bytes32",
          "name": "role",
          "type": "bytes32"
        },
        {
          "internalType": "address",
          "name": "account",
          "type": "address"
        }
      ],
      "name": "hasRole",
      "outputs": [
        {
          "internalType": "bool",
          "name": "",
          "type": "bool"
        }
      ],
      "stateMutability": "view",
      "type": "function"
    },
    {
      "inputs": [],
      "name": "nextElectionId",
      "outputs": [
        {
          "internalType": "uint256",
          "name": "",
          "type": "uint256"
        }
      ],
      "stateMutability": "view",
      "type": "function"
    },
    {
      "inputs": [
        {
          "internalType": "bytes32",
          "name": "role",
          "type": "bytes32"
        },
        {
          "internalType": "address",
          "name": "callerConfirmation",
          "type": "address"
        }
      ],
      "name": "renounceRole",
      "outputs": [],
      "stateMutability": "nonpayable",
      "type": "function"
    },
    {
      "inputs": [
        {
          "internalType": "bytes32",
          "name": "role",
          "type": "bytes32"
        },
        {
          "internalType": "address",
          "name": "account",
          "type": "address"
        }
      ],
      "name": "revokeRole",
      "outputs": [],
      "stateMutability": "nonpayable",
      "type": "function"
    },
    {
      "inputs": [
        {
          "internalType": "string",
          "name": "_name",
          "type": "string"
        }
      ],
      "name": "startElection",
      "outputs": [],
      "stateMutability": "nonpayable",
      "type": "function"
    },
    {
      "inputs": [
        {
          "internalType": "bytes4",
          "name": "interfaceId",
          "type": "bytes4"
        }
      ],
      "name": "supportsInterface",
      "outputs": [
        {
          "internalType": "bool",
          "name": "",
          "type": "bool"
        }
      ],
      "stateMutability": "view",
      "type": "function"
    },
    {
      "inputs": [
        {
          "internalType": "string",
          "name": "",
          "type": "string"
        }
      ],
      "name": "usedElectionNames",
      "outputs": [
        {
          "internalType": "bool",
          "name": "",
          "type": "bool"
        }
      ],
      "stateMutability": "view",
      "type": "function"
    },
    {
      "inputs": [
        {
          "internalType": "uint256",
          "name": "electionId",
          "type": "uint256"
        },
        {
          "internalType": "uint256",
          "name": "candidateIndex",
          "type": "uint256"
        }
      ],
      "name": "vote",
      "outputs": [],
      "stateMutability": "nonpayable",
      "type": "function"
    }
  ],
  "bytecode": "0x608060405234801561001057600080fd5b506100246000801b3361005b60201b60201c565b506100557fa49807205ce4d355092ef5a8a18f56e8913cf4a201fbe287825b095693c217753361005b60201b60201c565b506101ca565b600061006d838361015860201b60201c565b61014d57600160008085815260200190815260200160002060000160008473ffffffffffffffffffffffffffffffffffffffff1673ffffffffffffffffffffffffffffffffffffffff16815260200190815260200160002060006101000a81548160ff0219169083151502179055506100ea6101c260201b60201c565b73ffffffffffffffffffffffffffffffffffffffff168273ffffffffffffffffffffffffffffffffffffffff16847f2f8788117e7eff1d82e926ec794901d17c78024a50270940304540a733656f0d60405160405180910390a460019050610152565b600090505b92915050565b600080600084815260200190815260200160002060000160008373ffffffffffffffffffffffffffffffffffffffff1673ffffffffffffffffffffffffffffffffffffffff16815260200190815260200160002060009054906101000a900460ff16905092915050565b600033905090565b612345806101d96000396000f3fe608060405234801561001057600080fd5b50600436106101165760003560e01c80637fd5f268116100a2578063a217fddf11610071578063a217fddf1461030b578063b384abef14610329578063beca56e514610345578063d547741f14610361578063f544bed81461037d57610116565b80637fd5f2681461026e57806391d148541461028e5780639c98bcbb146102be5780639d7713b3146102da57610116565b806336568abe116100e957806336568abe146101b35780635313837b146101cf5780635e6fef01146101ed5780635ef41f441461022057806375b238fc1461025057610116565b806301ffc9a71461011b5780631750a3d01461014b578063248a9ca3146101675780632f2ff15d14610197575b600080fd5b6101356004803603810190610130919061141c565b610399565b6040516101429190611464565b60405180910390f35b610165600480360381019061016091906115fb565b610413565b005b610181600480360381019061017c919061168d565b61051c565b60405161018e91906116c9565b60405180910390f35b6101b160048036038101906101ac9190611742565b61053b565b005b6101cd60048036038101906101c89190611742565b61055d565b005b6101d76105d8565b6040516101e49190611791565b60405180910390f35b610207600480360381019061020291906117ac565b6105de565b6040516102179493929190611858565b60405180910390f35b61023a600480360381019061023591906118a4565b6106a3565b6040516102479190611464565b60405180910390f35b6102586106d9565b60405161026591906116c9565b60405180910390f35b6102766106fd565b60405161028593929190611b75565b60405180910390f35b6102a860048036038101906102a39190611742565b610946565b6040516102b59190611464565b60405180910390f35b6102d860048036038101906102d391906117ac565b6109b0565b005b6102f460048036038101906102ef91906117ac565b610a8b565b604051610302929190611bc1565b60405180910390f35b610313610c8d565b60405161032091906116c9565b60405180910390f35b610343600480360381019061033e9190611bf8565b610c94565b005b61035f600480360381019061035a9190611c38565b610efe565b005b61037b60048036038101906103769190611742565b610f99565b005b610397600480360381019061039291906118a4565b610fbb565b005b60007f7965db0b000000000000000000000000000000000000000000000000000000007bffffffffffffffffffffffffffffffffffffffffffffffffffffffff1916827bffffffffffffffffffffffffffffffffffffffffffffffffffffffff1916148061040c575061040b826110f6565b5b9050919050565b7fa49807205ce4d355092ef5a8a18f56e8913cf4a201fbe287825b095693c2177561043d81611160565b6002600084815260200190815260200160002060010160009054906101000a900460ff166104a0576040517f08c379a000000000000000000000000000000000000000000000000000000000815260040161049790611cc4565b60405180910390fd5b60026000848152602001908152602001600020600401604051806040016040528084815260200160008152509080600181540180825580915050600190039060005260206000209060020201600090919091909150600082015181600001908161050a9190611ef0565b50602082015181600101555050505050565b6000806000838152602001908152602001600020600101549050919050565b6105448261051c565b61054d81611160565b6105578383611174565b50505050565b610565611265565b73ffffffffffffffffffffffffffffffffffffffff168173ffffffffffffffffffffffffffffffffffffffff16146105c9576040517f6697b23200000000000000000000000000000000000000000000000000000000815260040160405180910390fd5b6105d3828261126d565b505050565b60015481565b600260205280600052604060002060009150905080600001805461060190611d13565b80601f016020809104026020016040519081016040528092919081815260200182805461062d90611d13565b801561067a5780601f1061064f5761010080835404028352916020019161067a565b820191906000526020600020905b81548152906001019060200180831161065d57829003601f168201915b5050505050908060010160009054906101000a900460ff16908060020154908060030154905084565b6003818051602081018201805184825260208301602085012081835280955050505050506000915054906101000a900460ff1681565b7fa49807205ce4d355092ef5a8a18f56e8913cf4a201fbe287825b095693c2177581565b6060806060600060015467ffffffffffffffff8111156107205761071f6114d0565b5b60405190808252806020026020018201604052801561074e5781602001602082028036833780820191505090505b509050600060015467ffffffffffffffff81111561076f5761076e6114d0565b5b6040519080825280602002602001820160405280156107a257816020015b606081526020019060019003908161078d5790505b509050600060015467ffffffffffffffff8111156107c3576107c26114d0565b5b6040519080825280602002602001820160405280156107f15781602001602082028036833780820191505090505b50905060005b600154811015610934578084828151811061081557610814611fc2565b5b60200260200101818152505060026000828152602001908152602001600020600001805461084290611d13565b80601f016020809104026020016040519081016040528092919081815260200182805461086e90611d13565b80156108bb5780601f10610890576101008083540402835291602001916108bb565b820191906000526020600020905b81548152906001019060200180831161089e57829003601f168201915b50505050508382815181106108d3576108d2611fc2565b5b60200260200101819052506002600082815260200190815260200160002060010160009054906101000a900460ff1682828151811061091557610914611fc2565b5b60200260200101901515908115158152505080806001019150506107f7565b50828282955095509550505050909192565b600080600084815260200190815260200160002060000160008373ffffffffffffffffffffffffffffffffffffffff1673ffffffffffffffffffffffffffffffffffffffff16815260200190815260200160002060009054906101000a900460ff16905092915050565b7fa49807205ce4d355092ef5a8a18f56e8913cf4a201fbe287825b095693c217756109da81611160565b6002600083815260200190815260200160002060010160009054906101000a900460ff16610a3d576040517f08c379a0000000000000000000000000000000000000000000000000000000008152600401610a3490611cc4565b60405180910390fd5b60006002600084815260200190815260200160002060010160006101000a81548160ff0219169083151502179055504260026000848152602001908152602001600020600301819055505050565b606080600060026000858152602001908152602001600020905060008160040180549050905060008167ffffffffffffffff811115610acd57610acc6114d0565b5b604051908082528060200260200182016040528015610b0057816020015b6060815260200190600190039081610aeb5790505b50905060008267ffffffffffffffff811115610b1f57610b1e6114d0565b5b604051908082528060200260200182016040528015610b4d5781602001602082028036833780820191505090505b50905060005b83811015610c7d57846004018181548110610b7157610b70611fc2565b5b90600052602060002090600202016000018054610b8d90611d13565b80601f0160208091040260200160405190810160405280929190818152602001828054610bb990611d13565b8015610c065780601f10610bdb57610100808354040283529160200191610c06565b820191906000526020600020905b815481529060010190602001808311610be957829003601f168201915b5050505050838281518110610c1e57610c1d611fc2565b5b6020026020010181905250846004018181548110610c3f57610c3e611fc2565b5b906000526020600020906002020160010154828281518110610c6457610c63611fc2565b5b6020026020010181815250508080600101915050610b53565b5081819550955050505050915091565b6000801b81565b60006002600084815260200190815260200160002090508060010160009054906101000a900460ff16610cfc576040517f08c379a0000000000000000000000000000000000000000000000000000000008152600401610cf39061203d565b60405180910390fd5b8060050160003373ffffffffffffffffffffffffffffffffffffffff1673ffffffffffffffffffffffffffffffffffffffff16815260200190815260200160002060009054906101000a900460ff16610d8a576040517f08c379a0000000000000000000000000000000000000000000000000000000008152600401610d81906120a9565b60405180910390fd5b8060060160003373ffffffffffffffffffffffffffffffffffffffff1673ffffffffffffffffffffffffffffffffffffffff16815260200190815260200160002060009054906101000a900460ff1615610e19576040517f08c379a0000000000000000000000000000000000000000000000000000000008152600401610e1090612115565b60405180910390fd5b80600401805490508210610e62576040517f08c379a0000000000000000000000000000000000000000000000000000000008152600401610e5990612181565b60405180910390fd5b806004018281548110610e7857610e77611fc2565b5b90600052602060002090600202016001016000815480929190610e9a906121d0565b919050555060018160060160003373ffffffffffffffffffffffffffffffffffffffff1673ffffffffffffffffffffffffffffffffffffffff16815260200190815260200160002060006101000a81548160ff021916908315150217905550505050565b7fa49807205ce4d355092ef5a8a18f56e8913cf4a201fbe287825b095693c21775610f2881611160565b60016002600085815260200190815260200160002060050160008473ffffffffffffffffffffffffffffffffffffffff1673ffffffffffffffffffffffffffffffffffffffff16815260200190815260200160002060006101000a81548160ff021916908315150217905550505050565b610fa28261051c565b610fab81611160565b610fb5838361126d565b50505050565b7fa49807205ce4d355092ef5a8a18f56e8913cf4a201fbe287825b095693c21775610fe581611160565b600382604051610ff59190612254565b908152602001604051809103902060009054906101000a900460ff1615611051576040517f08c379a0000000000000000000000000000000000000000000000000000000008152600401611048906122b7565b60405180910390fd5b600060026000600154815260200190815260200160002090508281600001908161107b9190611ef0565b5060018160010160006101000a81548160ff02191690831515021790555042816002018190555060016003846040516110b49190612254565b908152602001604051809103902060006101000a81548160ff021916908315150217905550600160008154809291906110ec906121d0565b9190505550505050565b60007f01ffc9a7000000000000000000000000000000000000000000000000000000007bffffffffffffffffffffffffffffffffffffffffffffffffffffffff1916827bffffffffffffffffffffffffffffffffffffffffffffffffffffffff1916149050919050565b6111718161116c611265565b61135f565b50565b60006111808383610946565b61125a57600160008085815260200190815260200160002060000160008473ffffffffffffffffffffffffffffffffffffffff1673ffffffffffffffffffffffffffffffffffffffff16815260200190815260200160002060006101000a81548160ff0219169083151502179055506111f7611265565b73ffffffffffffffffffffffffffffffffffffffff168273ffffffffffffffffffffffffffffffffffffffff16847f2f8788117e7eff1d82e926ec794901d17c78024a50270940304540a733656f0d60405160405180910390a46001905061125f565b600090505b92915050565b600033905090565b60006112798383610946565b1561135457600080600085815260200190815260200160002060000160008473ffffffffffffffffffffffffffffffffffffffff1673ffffffffffffffffffffffffffffffffffffffff16815260200190815260200160002060006101000a81548160ff0219169083151502179055506112f1611265565b73ffffffffffffffffffffffffffffffffffffffff168273ffffffffffffffffffffffffffffffffffffffff16847ff6391f5c32d9c69d2a47ea670b442974b53935d1edc7fd64eb21e047a839171b60405160405180910390a460019050611359565b600090505b92915050565b6113698282610946565b6113ac5780826040517fe2517d3f0000000000000000000000000000000000000000000000000000000081526004016113a39291906122e6565b60405180910390fd5b5050565b6000604051905090565b600080fd5b600080fd5b60007fffffffff0000000000000000000000000000000000000000000000000000000082169050919050565b6113f9816113c4565b811461140457600080fd5b50565b600081359050611416816113f0565b92915050565b600060208284031215611432576114316113ba565b5b600061144084828501611407565b91505092915050565b60008115159050919050565b61145e81611449565b82525050565b60006020820190506114796000830184611455565b92915050565b6000819050919050565b6114928161147f565b811461149d57600080fd5b50565b6000813590506114af81611489565b92915050565b600080fd5b600080fd5b6000601f19601f8301169050919050565b7f4e487b7100000000000000000000000000000000000000000000000000000000600052604160045260246000fd5b611508826114bf565b810181811067ffffffffffffffff82111715611527576115266114d0565b5b80604052505050565b600061153a6113b0565b905061154682826114ff565b919050565b600067ffffffffffffffff821115611566576115656114d0565b5b61156f826114bf565b9050602081019050919050565b82818337600083830152505050565b600061159e6115998461154b565b611530565b9050828152602081018484840111156115ba576115b96114ba565b5b6115c584828561157c565b509392505050565b600082601f8301126115e2576115e16114b5565b5b81356115f284826020860161158b565b91505092915050565b60008060408385031215611612576116116113ba565b5b6000611620858286016114a0565b925050602083013567ffffffffffffffff811115611641576116406113bf565b5b61164d858286016115cd565b9150509250929050565b6000819050919050565b61166a81611657565b811461167557600080fd5b50565b60008135905061168781611661565b92915050565b6000602082840312156116a3576116a26113ba565b5b60006116b184828501611678565b91505092915050565b6116c381611657565b82525050565b60006020820190506116de60008301846116ba565b92915050565b600073ffffffffffffffffffffffffffffffffffffffff82169050919050565b600061170f826116e4565b9050919050565b61171f81611704565b811461172a57600080fd5b50565b60008135905061173c81611716565b92915050565b60008060408385031215611759576117586113ba565b5b600061176785828601611678565b92505060206117788582860161172d565b9150509250929050565b61178b8161147f565b82525050565b60006020820190506117a66000830184611782565b92915050565b6000602082840312156117c2576117c16113ba565b5b60006117d0848285016114a0565b91505092915050565b600081519050919050565b600082825260208201905092915050565b60005b838110156118135780820151818401526020810190506117f8565b60008484015250505050565b600061182a826117d9565b61183481856117e4565b93506118448185602086016117f5565b61184d816114bf565b840191505092915050565b60006080820190508181036000830152611872818761181f565b90506118816020830186611455565b61188e6040830185611782565b61189b6060830184611782565b95945050505050565b6000602082840312156118ba576118b96113ba565b5b600082013567ffffffffffffffff8111156118d8576118d76113bf565b5b6118e4848285016115cd565b91505092915050565b600081519050919050565b600082825260208201905092915050565b6000819050602082019050919050565b6119228161147f565b82525050565b60006119348383611919565b60208301905092915050565b6000602082019050919050565b6000611958826118ed565b61196281856118f8565b935061196d83611909565b8060005b8381101561199e5781516119858882611928565b975061199083611940565b925050600181019050611971565b5085935050505092915050565b600081519050919050565b600082825260208201905092915050565b6000819050602082019050919050565b600082825260208201905092915050565b60006119f3826117d9565b6119fd81856119d7565b9350611a0d8185602086016117f5565b611a16816114bf565b840191505092915050565b6000611a2d83836119e8565b905092915050565b6000602082019050919050565b6000611a4d826119ab565b611a5781856119b6565b935083602082028501611a69856119c7565b8060005b85811015611aa55784840389528151611a868582611a21565b9450611a9183611a35565b925060208a01995050600181019050611a6d565b50829750879550505050505092915050565b600081519050919050565b600082825260208201905092915050565b6000819050602082019050919050565b611aec81611449565b82525050565b6000611afe8383611ae3565b60208301905092915050565b6000602082019050919050565b6000611b2282611ab7565b611b2c8185611ac2565b9350611b3783611ad3565b8060005b83811015611b68578151611b4f8882611af2565b9750611b5a83611b0a565b925050600181019050611b3b565b5085935050505092915050565b60006060820190508181036000830152611b8f818661194d565b90508181036020830152611ba38185611a42565b90508181036040830152611bb78184611b17565b9050949350505050565b60006040820190508181036000830152611bdb8185611a42565b90508181036020830152611bef818461194d565b90509392505050565b60008060408385031215611c0f57611c0e6113ba565b5b6000611c1d858286016114a0565b9250506020611c2e858286016114a0565b9150509250929050565b60008060408385031215611c4f57611c4e6113ba565b5b6000611c5d858286016114a0565b9250506020611c6e8582860161172d565b9150509250929050565b7f456c656374696f6e206e6f742061637469766500000000000000000000000000600082015250565b6000611cae6013836117e4565b9150611cb982611c78565b602082019050919050565b60006020820190508181036000830152611cdd81611ca1565b9050919050565b7f4e487b7100000000000000000000000000000000000000000000000000000000600052602260045260246000fd5b60006002820490506001821680611d2b57607f821691505b602082108103611d3e57611d3d611ce4565b5b50919050565b60008190508160005260206000209050919050565b60006020601f8301049050919050565b600082821b905092915050565b600060088302611da67fffffffffffffffffffffffffffffffffffffffffffffffffffffffffffffffff82611d69565b611db08683611d69565b95508019841693508086168417925050509392505050565b6000819050919050565b6000611ded611de8611de38461147f565b611dc8565b61147f565b9050919050565b6000819050919050565b611e0783611dd2565b611e1b611e1382611df4565b848454611d76565b825550505050565b600090565b611e30611e23565b611e3b818484611dfe565b505050565b5b81811015611e5f57611e54600082611e28565b600181019050611e41565b5050565b601f821115611ea457611e7581611d44565b611e7e84611d59565b81016020851015611e8d578190505b611ea1611e9985611d59565b830182611e40565b50505b505050565b600082821c905092915050565b6000611ec760001984600802611ea9565b1980831691505092915050565b6000611ee08383611eb6565b9150826002028217905092915050565b611ef9826117d9565b67ffffffffffffffff811115611f1257611f116114d0565b5b611f1c8254611d13565b611f27828285611e63565b600060209050601f831160018114611f5a5760008415611f48578287015190505b611f528582611ed4565b865550611fba565b601f198416611f6886611d44565b60005b82811015611f9057848901518255600182019150602085019450602081019050611f6b565b86831015611fad5784890151611fa9601f891682611eb6565b8355505b6001600288020188555050505b505050505050565b7f4e487b7100000000000000000000000000000000000000000000000000000000600052603260045260246000fd5b7f456c656374696f6e206973206e6f742061637469766500000000000000000000600082015250565b60006120276016836117e4565b915061203282611ff1565b602082019050919050565b600060208201905081810360008301526120568161201a565b9050919050565b7f4e6f7420656c696769626c6520746f20766f7465000000000000000000000000600082015250565b60006120936014836117e4565b915061209e8261205d565b602082019050919050565b600060208201905081810360008301526120c281612086565b9050919050565b7f416c726561647920766f74656400000000000000000000000000000000000000600082015250565b60006120ff600d836117e4565b915061210a826120c9565b602082019050919050565b6000602082019050818103600083015261212e816120f2565b9050919050565b7f496e76616c69642063616e646964617465000000000000000000000000000000600082015250565b600061216b6011836117e4565b915061217682612135565b602082019050919050565b6000602082019050818103600083015261219a8161215e565b9050919050565b7f4e487b7100000000000000000000000000000000000000000000000000000000600052601160045260246000fd5b60006121db8261147f565b91507fffffffffffffffffffffffffffffffffffffffffffffffffffffffffffffffff820361220d5761220c6121a1565b5b600182019050919050565b600081905092915050565b600061222e826117d9565b6122388185612218565b93506122488185602086016117f5565b80840191505092915050565b60006122608284612223565b915081905092915050565b7f456c656374696f6e206e616d6520616c72656164792075736564000000000000600082015250565b60006122a1601a836117e4565b91506122ac8261226b565b602082019050919050565b600060208201905081810360008301526122d081612294565b9050919050565b6122e081611704565b82525050565b60006040820190506122fb60008301856122d7565b61230860208301846116ba565b939250505056fea264697066735822122021dc849c3c3c2feed3b687227e5f3c16bc80266c0ccb7c78d96c66144dcdabe864736f6c634300081c0033",
  "linkReferences": {},
  "deployedLinkReferences": {}
}