{
  "_format": "hh-sol-artifact-1",
  "contractName": "Voting",
  "sourceName": "contracts/VotingUpdated.sol",
  "abi": [
    {
      "inputs": [
        {
          "internalType": "string[]",
          "name": "_candidateNames",
          "type": "string[]"
        },
        {
          "internalType": "uint256",
          "name": "_durationInMinutes",
          "type": "uint256"
        }
      ],
      "stateMutability": "nonpayable",
      "type": "constructor"
    },
    {
      "inputs": [
        {
          "internalType": "string",
          "name": "_name",
          "type": "string"
        }
      ],
      "name": "addCandidate",
      "outputs": [],
      "stateMutability": "nonpayable",
      "type": "function"
    },
    {
      "inputs": [
        {
          "internalType": "address",
          "name": "_voter",
          "type": "address"
        }
      ],
      "name": "addEligibleVoter",
      "outputs": [],
      "stateMutability": "nonpayable",
      "type": "function"
    },
    {
      "inputs": [
        {
          "internalType": "address[]",
          "name": "_voters",
          "type": "address[]"
        }
      ],
      "name": "addEligibleVoters",
      "outputs": [],
      "stateMutability": "nonpayable",
      "type": "function"
    },
    {
      "inputs": [
        {
          "internalType": "uint256",
          "name": "",
          "type": "uint256"
        }
      ],
      "name": "candidates",
      "outputs": [
        {
          "internalType": "string",
          "name": "name",
          "type": "string"
        },
        {
          "internalType": "uint256",
          "name": "voteCount",
          "type": "uint256"
        }
      ],
      "stateMutability": "view",
      "type": "function"
    },
    {
      "inputs": [
        {
          "internalType": "address",
          "name": "",
          "type": "address"
        }
      ],
      "name": "eligibleVoters",
      "outputs": [
        {
          "internalType": "bool",
          "name": "",
          "type": "bool"
        }
      ],
      "stateMutability": "view",
      "type": "function"
    },
    {
      "inputs": [],
      "name": "getAllVotesOfCandiates",
      "outputs": [
        {
          "components": [
            {
              "internalType": "string",
              "name": "name",
              "type": "string"
            },
            {
              "internalType": "uint256",
              "name": "voteCount",
              "type": "uint256"
            }
          ],
          "internalType": "struct Voting.Candidate[]",
          "name": "",
          "type": "tuple[]"
        }
      ],
      "stateMutability": "view",
      "type": "function"
    },
    {
      "inputs": [],
      "name": "getRemainingTime",
      "outputs": [
        {
          "internalType": "uint256",
          "name": "",
          "type": "uint256"
        }
      ],
      "stateMutability": "view",
      "type": "function"
    },
    {
      "inputs": [
        {
          "internalType": "address",
          "name": "_voter",
          "type": "address"
        }
      ],
      "name": "getVotedCandidate",
      "outputs": [
        {
          "internalType": "string",
          "name": "",
          "type": "string"
        }
      ],
      "stateMutability": "view",
      "type": "function"
    },
    {
      "inputs": [],
      "name": "getVotingStatus",
      "outputs": [
        {
          "internalType": "bool",
          "name": "",
          "type": "bool"
        }
      ],
      "stateMutability": "view",
      "type": "function"
    },
    {
      "inputs": [
        {
          "internalType": "uint256",
          "name": "_candidateIndex",
          "type": "uint256"
        }
      ],
      "name": "vote",
      "outputs": [],
      "stateMutability": "nonpayable",
      "type": "function"
    },
    {
      "inputs": [
        {
          "internalType": "address",
          "name": "",
          "type": "address"
        }
      ],
      "name": "voterToCandidate",
      "outputs": [
        {
          "internalType": "uint256",
          "name": "",
          "type": "uint256"
        }
      ],
      "stateMutability": "view",
      "type": "function"
    },
    {
      "inputs": [
        {
          "internalType": "address",
          "name": "",
          "type": "address"
        }
      ],
      "name": "voters",
      "outputs": [
        {
          "internalType": "bool",
          "name": "",
          "type": "bool"
        }
      ],
      "stateMutability": "view",
      "type": "function"
    },
    {
      "inputs": [],
      "name": "votingEnd",
      "outputs": [
        {
          "internalType": "uint256",
          "name": "",
          "type": "uint256"
        }
      ],
      "stateMutability": "view",
      "type": "function"
    },
    {
      "inputs": [],
      "name": "votingStart",
      "outputs": [
        {
          "internalType": "uint256",
          "name": "",
          "type": "uint256"
        }
      ],
      "stateMutability": "view",
      "type": "function"
    }
  ],
  "bytecode": "0x608060405234801561001057600080fd5b506040516120ac3803806120ac833981810160405281019061003291906103c7565b60005b82518110156100c8576000604051806040016040528085848151811061005e5761005d610423565b5b602002602001015181526020016000815250908060018154018082558091505060019003906000526020600020906002020160009091909190915060008201518160000190816100ae9190610669565b506020820151816001015550508080600101915050610035565b5033600160006101000a81548173ffffffffffffffffffffffffffffffffffffffff021916908373ffffffffffffffffffffffffffffffffffffffff16021790555042600581905550603c8161011e919061076a565b4261012991906107ac565b60068190555050506107e0565b6000604051905090565b600080fd5b600080fd5b600080fd5b6000601f19601f8301169050919050565b7f4e487b7100000000000000000000000000000000000000000000000000000000600052604160045260246000fd5b6101988261014f565b810181811067ffffffffffffffff821117156101b7576101b6610160565b5b80604052505050565b60006101ca610136565b90506101d6828261018f565b919050565b600067ffffffffffffffff8211156101f6576101f5610160565b5b602082029050602081019050919050565b600080fd5b600080fd5b600067ffffffffffffffff82111561022c5761022b610160565b5b6102358261014f565b9050602081019050919050565b60005b83811015610260578082015181840152602081019050610245565b60008484015250505050565b600061027f61027a84610211565b6101c0565b90508281526020810184848401111561029b5761029a61020c565b5b6102a6848285610242565b509392505050565b600082601f8301126102c3576102c261014a565b5b81516102d384826020860161026c565b91505092915050565b60006102ef6102ea846101db565b6101c0565b9050808382526020820190506020840283018581111561031257610311610207565b5b835b8181101561035957805167ffffffffffffffff8111156103375761033661014a565b5b80860161034489826102ae565b85526020850194505050602081019050610314565b5050509392505050565b600082601f8301126103785761037761014a565b5b81516103888482602086016102dc565b91505092915050565b6000819050919050565b6103a481610391565b81146103af57600080fd5b50565b6000815190506103c18161039b565b92915050565b600080604083850312156103de576103dd610140565b5b600083015167ffffffffffffffff8111156103fc576103fb610145565b5b61040885828601610363565b9250506020610419858286016103b2565b9150509250929050565b7f4e487b7100000000000000000000000000000000000000000000000000000000600052603260045260246000fd5b600081519050919050565b7f4e487b7100000000000000000000000000000000000000000000000000000000600052602260045260246000fd5b600060028204905060018216806104a457607f821691505b6020821081036104b7576104b661045d565b5b50919050565b60008190508160005260206000209050919050565b60006020601f8301049050919050565b600082821b905092915050565b60006008830261051f7fffffffffffffffffffffffffffffffffffffffffffffffffffffffffffffffff826104e2565b61052986836104e2565b95508019841693508086168417925050509392505050565b6000819050919050565b600061056661056161055c84610391565b610541565b610391565b9050919050565b6000819050919050565b6105808361054b565b61059461058c8261056d565b8484546104ef565b825550505050565b600090565b6105a961059c565b6105b4818484610577565b505050565b5b818110156105d8576105cd6000826105a1565b6001810190506105ba565b5050565b601f82111561061d576105ee816104bd565b6105f7846104d2565b81016020851015610606578190505b61061a610612856104d2565b8301826105b9565b50505b505050565b600082821c905092915050565b600061064060001984600802610622565b1980831691505092915050565b6000610659838361062f565b9150826002028217905092915050565b61067282610452565b67ffffffffffffffff81111561068b5761068a610160565b5b610695825461048c565b6106a08282856105dc565b600060209050601f8311600181146106d357600084156106c1578287015190505b6106cb858261064d565b865550610733565b601f1984166106e1866104bd565b60005b82811015610709578489015182556001820191506020850194506020810190506106e4565b868310156107265784890151610722601f89168261062f565b8355505b6001600288020188555050505b505050505050565b7f4e487b7100000000000000000000000000000000000000000000000000000000600052601160045260246000fd5b600061077582610391565b915061078083610391565b925082820261078e81610391565b915082820484148315176107a5576107a461073b565b5b5092915050565b60006107b782610391565b91506107c283610391565b92508282019050808211156107da576107d961073b565b5b92915050565b6118bd806107ef6000396000f3fe608060405234801561001057600080fd5b50600436106100ea5760003560e01c8063a3ec138d1161008c578063e8efd48011610066578063e8efd4801461024c578063edaa5dfc1461027c578063ee5d92a8146102ac578063efb98bcf146102c8576100ea565b8063a3ec138d146101d0578063a567dd7514610200578063dc4d2dbc14610230576100ea565b8063462e91ec116100c8578063462e91ec1461015a5780634d6bda5f14610176578063581c281c1461019457806385a38635146101b2576100ea565b80630121b93f146100ef578063101158af1461010b5780633477ee2e14610129575b600080fd5b61010960048036038101906101049190610c44565b6102e6565b005b610113610572565b6040516101209190610c80565b60405180910390f35b610143600480360381019061013e9190610c44565b610578565b604051610151929190610d2b565b60405180910390f35b610174600480360381019061016f9190610e90565b610634565b005b61017e6106f4565b60405161018b9190611031565b60405180910390f35b61019c6107ef565b6040516101a9919061106e565b60405180910390f35b6101ba610809565b6040516101c79190610c80565b60405180910390f35b6101ea60048036038101906101e591906110e7565b61080f565b6040516101f7919061106e565b60405180910390f35b61021a600480360381019061021591906110e7565b61082f565b6040516102279190610c80565b60405180910390f35b61024a600480360381019061024591906110e7565b610847565b005b610266600480360381019061026191906110e7565b6108fc565b604051610273919061106e565b60405180910390f35b610296600480360381019061029191906110e7565b61091c565b6040516102a39190611114565b60405180910390f35b6102c660048036038101906102c191906111fe565b610aa4565b005b6102d0610b8d565b6040516102dd9190610c80565b60405180910390f35b60055442101580156102f9575060065442105b610338576040517f08c379a000000000000000000000000000000000000000000000000000000000815260040161032f90611293565b60405180910390fd5b600260003373ffffffffffffffffffffffffffffffffffffffff1673ffffffffffffffffffffffffffffffffffffffff16815260200190815260200160002060009054906101000a900460ff16156103c5576040517f08c379a00000000000000000000000000000000000000000000000000000000081526004016103bc906112ff565b60405180910390fd5b600080549050811061040c576040517f08c379a00000000000000000000000000000000000000000000000000000000081526004016104039061136b565b60405180910390fd5b600360003373ffffffffffffffffffffffffffffffffffffffff1673ffffffffffffffffffffffffffffffffffffffff16815260200190815260200160002060009054906101000a900460ff16610498576040517f08c379a000000000000000000000000000000000000000000000000000000000815260040161048f906113d7565b60405180910390fd5b600081815481106104ac576104ab6113f7565b5b906000526020600020906002020160010160008154809291906104ce90611455565b91905055506001600260003373ffffffffffffffffffffffffffffffffffffffff1673ffffffffffffffffffffffffffffffffffffffff16815260200190815260200160002060006101000a81548160ff02191690831515021790555080600460003373ffffffffffffffffffffffffffffffffffffffff1673ffffffffffffffffffffffffffffffffffffffff1681526020019081526020016000208190555050565b60055481565b6000818154811061058857600080fd5b90600052602060002090600202016000915090508060000180546105ab906114cc565b80601f01602080910402602001604051908101604052809291908181526020018280546105d7906114cc565b80156106245780601f106105f957610100808354040283529160200191610624565b820191906000526020600020905b81548152906001019060200180831161060757829003601f168201915b5050505050908060010154905082565b600160009054906101000a900473ffffffffffffffffffffffffffffffffffffffff1673ffffffffffffffffffffffffffffffffffffffff163373ffffffffffffffffffffffffffffffffffffffff161461068e57600080fd5b600060405180604001604052808381526020016000815250908060018154018082558091505060019003906000526020600020906002020160009091909190915060008201518160000190816106e491906116a9565b5060208201518160010155505050565b60606000805480602002602001604051908101604052809291908181526020016000905b828210156107e6578382906000526020600020906002020160405180604001604052908160008201805461074b906114cc565b80601f0160208091040260200160405190810160405280929190818152602001828054610777906114cc565b80156107c45780601f10610799576101008083540402835291602001916107c4565b820191906000526020600020905b8154815290600101906020018083116107a757829003601f168201915b5050505050815260200160018201548152505081526020019060010190610718565b50505050905090565b60006005544210158015610804575060065442105b905090565b60065481565b60026020528060005260406000206000915054906101000a900460ff1681565b60046020528060005260406000206000915090505481565b600160009054906101000a900473ffffffffffffffffffffffffffffffffffffffff1673ffffffffffffffffffffffffffffffffffffffff163373ffffffffffffffffffffffffffffffffffffffff16146108a157600080fd5b6001600360008373ffffffffffffffffffffffffffffffffffffffff1673ffffffffffffffffffffffffffffffffffffffff16815260200190815260200160002060006101000a81548160ff02191690831515021790555050565b60036020528060005260406000206000915054906101000a900460ff1681565b6060600260008373ffffffffffffffffffffffffffffffffffffffff1673ffffffffffffffffffffffffffffffffffffffff16815260200190815260200160002060009054906101000a900460ff166109aa576040517f08c379a00000000000000000000000000000000000000000000000000000000081526004016109a1906117c7565b60405180910390fd5b6000600460008473ffffffffffffffffffffffffffffffffffffffff1673ffffffffffffffffffffffffffffffffffffffff16815260200190815260200160002054905060008181548110610a0257610a016113f7565b5b90600052602060002090600202016000018054610a1e906114cc565b80601f0160208091040260200160405190810160405280929190818152602001828054610a4a906114cc565b8015610a975780601f10610a6c57610100808354040283529160200191610a97565b820191906000526020600020905b815481529060010190602001808311610a7a57829003601f168201915b5050505050915050919050565b600160009054906101000a900473ffffffffffffffffffffffffffffffffffffffff1673ffffffffffffffffffffffffffffffffffffffff163373ffffffffffffffffffffffffffffffffffffffff1614610afe57600080fd5b60005b8151811015610b8957600160036000848481518110610b2357610b226113f7565b5b602002602001015173ffffffffffffffffffffffffffffffffffffffff1673ffffffffffffffffffffffffffffffffffffffff16815260200190815260200160002060006101000a81548160ff0219169083151502179055508080600101915050610b01565b5050565b6000600554421015610bd4576040517f08c379a0000000000000000000000000000000000000000000000000000000008152600401610bcb90611833565b60405180910390fd5b6006544210610be65760009050610bf7565b42600654610bf49190611853565b90505b90565b6000604051905090565b600080fd5b600080fd5b6000819050919050565b610c2181610c0e565b8114610c2c57600080fd5b50565b600081359050610c3e81610c18565b92915050565b600060208284031215610c5a57610c59610c04565b5b6000610c6884828501610c2f565b91505092915050565b610c7a81610c0e565b82525050565b6000602082019050610c956000830184610c71565b92915050565b600081519050919050565b600082825260208201905092915050565b60005b83811015610cd5578082015181840152602081019050610cba565b60008484015250505050565b6000601f19601f8301169050919050565b6000610cfd82610c9b565b610d078185610ca6565b9350610d17818560208601610cb7565b610d2081610ce1565b840191505092915050565b60006040820190508181036000830152610d458185610cf2565b9050610d546020830184610c71565b9392505050565b600080fd5b600080fd5b7f4e487b7100000000000000000000000000000000000000000000000000000000600052604160045260246000fd5b610d9d82610ce1565b810181811067ffffffffffffffff82111715610dbc57610dbb610d65565b5b80604052505050565b6000610dcf610bfa565b9050610ddb8282610d94565b919050565b600067ffffffffffffffff821115610dfb57610dfa610d65565b5b610e0482610ce1565b9050602081019050919050565b82818337600083830152505050565b6000610e33610e2e84610de0565b610dc5565b905082815260208101848484011115610e4f57610e4e610d60565b5b610e5a848285610e11565b509392505050565b600082601f830112610e7757610e76610d5b565b5b8135610e87848260208601610e20565b91505092915050565b600060208284031215610ea657610ea5610c04565b5b600082013567ffffffffffffffff811115610ec457610ec3610c09565b5b610ed084828501610e62565b91505092915050565b600081519050919050565b600082825260208201905092915050565b6000819050602082019050919050565b600082825260208201905092915050565b6000610f2182610c9b565b610f2b8185610f05565b9350610f3b818560208601610cb7565b610f4481610ce1565b840191505092915050565b610f5881610c0e565b82525050565b60006040830160008301518482036000860152610f7b8282610f16565b9150506020830151610f906020860182610f4f565b508091505092915050565b6000610fa78383610f5e565b905092915050565b6000602082019050919050565b6000610fc782610ed9565b610fd18185610ee4565b935083602082028501610fe385610ef5565b8060005b8581101561101f57848403895281516110008582610f9b565b945061100b83610faf565b925060208a01995050600181019050610fe7565b50829750879550505050505092915050565b6000602082019050818103600083015261104b8184610fbc565b905092915050565b60008115159050919050565b61106881611053565b82525050565b6000602082019050611083600083018461105f565b92915050565b600073ffffffffffffffffffffffffffffffffffffffff82169050919050565b60006110b482611089565b9050919050565b6110c4816110a9565b81146110cf57600080fd5b50565b6000813590506110e1816110bb565b92915050565b6000602082840312156110fd576110fc610c04565b5b600061110b848285016110d2565b91505092915050565b6000602082019050818103600083015261112e8184610cf2565b905092915050565b600067ffffffffffffffff82111561115157611150610d65565b5b602082029050602081019050919050565b600080fd5b600061117a61117584611136565b610dc5565b9050808382526020820190506020840283018581111561119d5761119c611162565b5b835b818110156111c657806111b288826110d2565b84526020840193505060208101905061119f565b5050509392505050565b600082601f8301126111e5576111e4610d5b565b5b81356111f5848260208601611167565b91505092915050565b60006020828403121561121457611213610c04565b5b600082013567ffffffffffffffff81111561123257611231610c09565b5b61123e848285016111d0565b91505092915050565b7f566f74696e67206973206e6f74206163746976652e0000000000000000000000600082015250565b600061127d601583610ca6565b915061128882611247565b602082019050919050565b600060208201905081810360008301526112ac81611270565b9050919050565b7f596f75206861766520616c726561647920766f7465642e000000000000000000600082015250565b60006112e9601783610ca6565b91506112f4826112b3565b602082019050919050565b60006020820190508181036000830152611318816112dc565b9050919050565b7f496e76616c69642063616e64696461746520696e6465782e0000000000000000600082015250565b6000611355601883610ca6565b91506113608261131f565b602082019050919050565b6000602082019050818103600083015261138481611348565b9050919050565b7f596f7520617265206e6f7420656c696769626c6520746f20766f74652e000000600082015250565b60006113c1601d83610ca6565b91506113cc8261138b565b602082019050919050565b600060208201905081810360008301526113f0816113b4565b9050919050565b7f4e487b7100000000000000000000000000000000000000000000000000000000600052603260045260246000fd5b7f4e487b7100000000000000000000000000000000000000000000000000000000600052601160045260246000fd5b600061146082610c0e565b91507fffffffffffffffffffffffffffffffffffffffffffffffffffffffffffffffff820361149257611491611426565b5b600182019050919050565b7f4e487b7100000000000000000000000000000000000000000000000000000000600052602260045260246000fd5b600060028204905060018216806114e457607f821691505b6020821081036114f7576114f661149d565b5b50919050565b60008190508160005260206000209050919050565b60006020601f8301049050919050565b600082821b905092915050565b60006008830261155f7fffffffffffffffffffffffffffffffffffffffffffffffffffffffffffffffff82611522565b6115698683611522565b95508019841693508086168417925050509392505050565b6000819050919050565b60006115a66115a161159c84610c0e565b611581565b610c0e565b9050919050565b6000819050919050565b6115c08361158b565b6115d46115cc826115ad565b84845461152f565b825550505050565b600090565b6115e96115dc565b6115f48184846115b7565b505050565b5b818110156116185761160d6000826115e1565b6001810190506115fa565b5050565b601f82111561165d5761162e816114fd565b61163784611512565b81016020851015611646578190505b61165a61165285611512565b8301826115f9565b50505b505050565b600082821c905092915050565b600061168060001984600802611662565b1980831691505092915050565b6000611699838361166f565b9150826002028217905092915050565b6116b282610c9b565b67ffffffffffffffff8111156116cb576116ca610d65565b5b6116d582546114cc565b6116e082828561161c565b600060209050601f8311600181146117135760008415611701578287015190505b61170b858261168d565b865550611773565b601f198416611721866114fd565b60005b8281101561174957848901518255600182019150602085019450602081019050611724565b868310156117665784890151611762601f89168261166f565b8355505b6001600288020188555050505b505050505050565b7f54686973206164647265737320686173206e6f7420766f7465642e0000000000600082015250565b60006117b1601b83610ca6565b91506117bc8261177b565b602082019050919050565b600060208201905081810360008301526117e0816117a4565b9050919050565b7f566f74696e6720686173206e6f742073746172746564207965742e0000000000600082015250565b600061181d601b83610ca6565b9150611828826117e7565b602082019050919050565b6000602082019050818103600083015261184c81611810565b9050919050565b600061185e82610c0e565b915061186983610c0e565b925082820390508181111561188157611880611426565b5b9291505056fea2646970667358221220208e02b304d62b63b9aebb6fdde8491ef09f2fedc64635d79bba5c2bd71e375e64736f6c634300081c0033",
  "linkReferences": {},
  "deployedLinkReferences": {}
}