{
  "_format": "hh-sol-artifact-1",
  "contractName": "Voting",
  "sourceName": "contracts/Voting.sol",
  "abi": [
    {
      "inputs": [],
      "stateMutability": "nonpayable",
      "type": "constructor"
    },
    {
      "inputs": [],
      "name": "AccessControlBadConfirmation",
      "type": "error"
    },
    {
      "inputs": [
        {
          "internalType": "address",
          "name": "account",
          "type": "address"
        },
        {
          "internalType": "bytes32",
          "name": "neededRole",
          "type": "bytes32"
        }
      ],
      "name": "AccessControlUnauthorizedAccount",
      "type": "error"
    },
    {
      "anonymous": false,
      "inputs": [
        {
          "indexed": true,
          "internalType": "bytes32",
          "name": "role",
          "type": "bytes32"
        },
        {
          "indexed": true,
          "internalType": "bytes32",
          "name": "previousAdminRole",
          "type": "bytes32"
        },
        {
          "indexed": true,
          "internalType": "bytes32",
          "name": "newAdminRole",
          "type": "bytes32"
        }
      ],
      "name": "RoleAdminChanged",
      "type": "event"
    },
    {
      "anonymous": false,
      "inputs": [
        {
          "indexed": true,
          "internalType": "bytes32",
          "name": "role",
          "type": "bytes32"
        },
        {
          "indexed": true,
          "internalType": "address",
          "name": "account",
          "type": "address"
        },
        {
          "indexed": true,
          "internalType": "address",
          "name": "sender",
          "type": "address"
        }
      ],
      "name": "RoleGranted",
      "type": "event"
    },
    {
      "anonymous": false,
      "inputs": [
        {
          "indexed": true,
          "internalType": "bytes32",
          "name": "role",
          "type": "bytes32"
        },
        {
          "indexed": true,
          "internalType": "address",
          "name": "account",
          "type": "address"
        },
        {
          "indexed": true,
          "internalType": "address",
          "name": "sender",
          "type": "address"
        }
      ],
      "name": "RoleRevoked",
      "type": "event"
    },
    {
      "inputs": [],
      "name": "ADMIN_ROLE",
      "outputs": [
        {
          "internalType": "bytes32",
          "name": "",
          "type": "bytes32"
        }
      ],
      "stateMutability": "view",
      "type": "function"
    },
    {
      "inputs": [],
      "name": "DEFAULT_ADMIN_ROLE",
      "outputs": [
        {
          "internalType": "bytes32",
          "name": "",
          "type": "bytes32"
        }
      ],
      "stateMutability": "view",
      "type": "function"
    },
    {
      "inputs": [
        {
          "internalType": "uint256",
          "name": "electionId",
          "type": "uint256"
        },
        {
          "internalType": "string",
          "name": "_name",
          "type": "string"
        }
      ],
      "name": "addCandidate",
      "outputs": [],
      "stateMutability": "nonpayable",
      "type": "function"
    },
    {
      "inputs": [
        {
          "internalType": "uint256",
          "name": "electionId",
          "type": "uint256"
        },
        {
          "internalType": "address",
          "name": "_voter",
          "type": "address"
        }
      ],
      "name": "addEligibleVoter",
      "outputs": [],
      "stateMutability": "nonpayable",
      "type": "function"
    },
    {
      "inputs": [
        {
          "internalType": "uint256",
          "name": "",
          "type": "uint256"
        }
      ],
      "name": "elections",
      "outputs": [
        {
          "internalType": "string",
          "name": "name",
          "type": "string"
        },
        {
          "internalType": "bool",
          "name": "active",
          "type": "bool"
        },
        {
          "internalType": "uint256",
          "name": "startTime",
          "type": "uint256"
        },
        {
          "internalType": "uint256",
          "name": "endTime",
          "type": "uint256"
        }
      ],
      "stateMutability": "view",
      "type": "function"
    },
    {
      "inputs": [
        {
          "internalType": "uint256",
          "name": "electionId",
          "type": "uint256"
        }
      ],
      "name": "endElection",
      "outputs": [],
      "stateMutability": "nonpayable",
      "type": "function"
    },
    {
      "inputs": [],
      "name": "getActiveElections",
      "outputs": [
        {
          "internalType": "uint256[]",
          "name": "",
          "type": "uint256[]"
        },
        {
          "internalType": "string[]",
          "name": "",
          "type": "string[]"
        }
      ],
      "stateMutability": "view",
      "type": "function"
    },
    {
      "inputs": [],
      "name": "getAllElections",
      "outputs": [
        {
          "internalType": "uint256[]",
          "name": "",
          "type": "uint256[]"
        },
        {
          "internalType": "string[]",
          "name": "",
          "type": "string[]"
        },
        {
          "internalType": "bool[]",
          "name": "",
          "type": "bool[]"
        }
      ],
      "stateMutability": "view",
      "type": "function"
    },
    {
      "inputs": [
        {
          "internalType": "uint256",
          "name": "electionId",
          "type": "uint256"
        }
      ],
      "name": "getAllVotesOfCandidates",
      "outputs": [
        {
          "internalType": "string[]",
          "name": "",
          "type": "string[]"
        },
        {
          "internalType": "uint256[]",
          "name": "",
          "type": "uint256[]"
        }
      ],
      "stateMutability": "view",
      "type": "function"
    },
    {
      "inputs": [
        {
          "internalType": "bytes32",
          "name": "role",
          "type": "bytes32"
        }
      ],
      "name": "getRoleAdmin",
      "outputs": [
        {
          "internalType": "bytes32",
          "name": "",
          "type": "bytes32"
        }
      ],
      "stateMutability": "view",
      "type": "function"
    },
    {
      "inputs": [
        {
          "internalType": "bytes32",
          "name": "role",
          "type": "bytes32"
        },
        {
          "internalType": "address",
          "name": "account",
          "type": "address"
        }
      ],
      "name": "grantRole",
      "outputs": [],
      "stateMutability": "nonpayable",
      "type": "function"
    },
    {
      "inputs": [
        {
          "internalType": "bytes32",
          "name": "role",
          "type": "bytes32"
        },
        {
          "internalType": "address",
          "name": "account",
          "type": "address"
        }
      ],
      "name": "hasRole",
      "outputs": [
        {
          "internalType": "bool",
          "name": "",
          "type": "bool"
        }
      ],
      "stateMutability": "view",
      "type": "function"
    },
    {
      "inputs": [],
      "name": "nextElectionId",
      "outputs": [
        {
          "internalType": "uint256",
          "name": "",
          "type": "uint256"
        }
      ],
      "stateMutability": "view",
      "type": "function"
    },
    {
      "inputs": [
        {
          "internalType": "bytes32",
          "name": "role",
          "type": "bytes32"
        },
        {
          "internalType": "address",
          "name": "callerConfirmation",
          "type": "address"
        }
      ],
      "name": "renounceRole",
      "outputs": [],
      "stateMutability": "nonpayable",
      "type": "function"
    },
    {
      "inputs": [
        {
          "internalType": "bytes32",
          "name": "role",
          "type": "bytes32"
        },
        {
          "internalType": "address",
          "name": "account",
          "type": "address"
        }
      ],
      "name": "revokeRole",
      "outputs": [],
      "stateMutability": "nonpayable",
      "type": "function"
    },
    {
      "inputs": [
        {
          "internalType": "string",
          "name": "_name",
          "type": "string"
        }
      ],
      "name": "startElection",
      "outputs": [],
      "stateMutability": "nonpayable",
      "type": "function"
    },
    {
      "inputs": [
        {
          "internalType": "bytes4",
          "name": "interfaceId",
          "type": "bytes4"
        }
      ],
      "name": "supportsInterface",
      "outputs": [
        {
          "internalType": "bool",
          "name": "",
          "type": "bool"
        }
      ],
      "stateMutability": "view",
      "type": "function"
    },
    {
      "inputs": [
        {
          "internalType": "string",
          "name": "",
          "type": "string"
        }
      ],
      "name": "usedElectionNames",
      "outputs": [
        {
          "internalType": "bool",
          "name": "",
          "type": "bool"
        }
      ],
      "stateMutability": "view",
      "type": "function"
    },
    {
      "inputs": [
        {
          "internalType": "uint256",
          "name": "electionId",
          "type": "uint256"
        },
        {
          "internalType": "uint256",
          "name": "candidateIndex",
          "type": "uint256"
        }
      ],
      "name": "vote",
      "outputs": [],
      "stateMutability": "nonpayable",
      "type": "function"
    },
    {
      "inputs": [],
      "name": "votingActive",
      "outputs": [
        {
          "internalType": "bool",
          "name": "",
          "type": "bool"
        }
      ],
      "stateMutability": "view",
      "type": "function"
    }
  ],
  "bytecode": "0x608060405234801561001057600080fd5b506100246000801b3361005b60201b60201c565b506100557fa49807205ce4d355092ef5a8a18f56e8913cf4a201fbe287825b095693c217753361005b60201b60201c565b506101ca565b600061006d838361015860201b60201c565b61014d57600160008085815260200190815260200160002060000160008473ffffffffffffffffffffffffffffffffffffffff1673ffffffffffffffffffffffffffffffffffffffff16815260200190815260200160002060006101000a81548160ff0219169083151502179055506100ea6101c260201b60201c565b73ffffffffffffffffffffffffffffffffffffffff168273ffffffffffffffffffffffffffffffffffffffff16847f2f8788117e7eff1d82e926ec794901d17c78024a50270940304540a733656f0d60405160405180910390a460019050610152565b600090505b92915050565b600080600084815260200190815260200160002060000160008373ffffffffffffffffffffffffffffffffffffffff1673ffffffffffffffffffffffffffffffffffffffff16815260200190815260200160002060009054906101000a900460ff16905092915050565b600033905090565b612689806101d96000396000f3fe608060405234801561001057600080fd5b506004361061012c5760003560e01c80637fd5f268116100ad578063a217fddf11610071578063a217fddf1461035e578063b384abef1461037c578063beca56e514610398578063d547741f146103b4578063f544bed8146103d05761012c565b80637fd5f268146102a25780638a3b63b0146102c257806391d14854146102e15780639c98bcbb146103115780639d7713b31461032d5761012c565b8063408e2727116100f4578063408e2727146101e55780635313837b146102035780635e6fef01146102215780635ef41f441461025457806375b238fc146102845761012c565b806301ffc9a7146101315780631750a3d014610161578063248a9ca31461017d5780632f2ff15d146101ad57806336568abe146101c9575b600080fd5b61014b600480360381019061014691906116f5565b6103ec565b604051610158919061173d565b60405180910390f35b61017b600480360381019061017691906118d4565b610466565b005b61019760048036038101906101929190611966565b61056f565b6040516101a491906119a2565b60405180910390f35b6101c760048036038101906101c29190611a1b565b61058e565b005b6101e360048036038101906101de9190611a1b565b6105b0565b005b6101ed61062b565b6040516101fa919061173d565b60405180910390f35b61020b61067c565b6040516102189190611a6a565b60405180910390f35b61023b60048036038101906102369190611a85565b610682565b60405161024b9493929190611b31565b60405180910390f35b61026e60048036038101906102699190611b7d565b610747565b60405161027b919061173d565b60405180910390f35b61028c61077d565b60405161029991906119a2565b60405180910390f35b6102aa6107a1565b6040516102b993929190611e4e565b60405180910390f35b6102ca6109ea565b6040516102d8929190611e9a565b60405180910390f35b6102fb60048036038101906102f69190611a1b565b610c1f565b604051610308919061173d565b60405180910390f35b61032b60048036038101906103269190611a85565b610c89565b005b61034760048036038101906103429190611a85565b610d64565b604051610355929190611ed1565b60405180910390f35b610366610f66565b60405161037391906119a2565b60405180910390f35b61039660048036038101906103919190611f08565b610f6d565b005b6103b260048036038101906103ad9190611f48565b6111d7565b005b6103ce60048036038101906103c99190611a1b565b611272565b005b6103ea60048036038101906103e59190611b7d565b611294565b005b60007f7965db0b000000000000000000000000000000000000000000000000000000007bffffffffffffffffffffffffffffffffffffffffffffffffffffffff1916827bffffffffffffffffffffffffffffffffffffffffffffffffffffffff1916148061045f575061045e826113cf565b5b9050919050565b7fa49807205ce4d355092ef5a8a18f56e8913cf4a201fbe287825b095693c2177561049081611439565b6002600084815260200190815260200160002060010160009054906101000a900460ff166104f3576040517f08c379a00000000000000000000000000000000000000000000000000000000081526004016104ea90611fd4565b60405180910390fd5b60026000848152602001908152602001600020600401604051806040016040528084815260200160008152509080600181540180825580915050600190039060005260206000209060020201600090919091909150600082015181600001908161055d9190612200565b50602082015181600101555050505050565b6000806000838152602001908152602001600020600101549050919050565b6105978261056f565b6105a081611439565b6105aa838361144d565b50505050565b6105b861153e565b73ffffffffffffffffffffffffffffffffffffffff168173ffffffffffffffffffffffffffffffffffffffff161461061c576040517f6697b23200000000000000000000000000000000000000000000000000000000815260040160405180910390fd5b6106268282611546565b505050565b6000806001540361063f5760009050610679565b600060026000600180546106539190612301565b815260200190815260200160002090508060010160009054906101000a900460ff169150505b90565b60015481565b60026020528060005260406000206000915090508060000180546106a590612023565b80601f01602080910402602001604051908101604052809291908181526020018280546106d190612023565b801561071e5780601f106106f35761010080835404028352916020019161071e565b820191906000526020600020905b81548152906001019060200180831161070157829003601f168201915b5050505050908060010160009054906101000a900460ff16908060020154908060030154905084565b6003818051602081018201805184825260208301602085012081835280955050505050506000915054906101000a900460ff1681565b7fa49807205ce4d355092ef5a8a18f56e8913cf4a201fbe287825b095693c2177581565b6060806060600060015467ffffffffffffffff8111156107c4576107c36117a9565b5b6040519080825280602002602001820160405280156107f25781602001602082028036833780820191505090505b509050600060015467ffffffffffffffff811115610813576108126117a9565b5b60405190808252806020026020018201604052801561084657816020015b60608152602001906001900390816108315790505b509050600060015467ffffffffffffffff811115610867576108666117a9565b5b6040519080825280602002602001820160405280156108955781602001602082028036833780820191505090505b50905060005b6001548110156109d857808482815181106108b9576108b8612335565b5b6020026020010181815250506002600082815260200190815260200160002060000180546108e690612023565b80601f016020809104026020016040519081016040528092919081815260200182805461091290612023565b801561095f5780601f106109345761010080835404028352916020019161095f565b820191906000526020600020905b81548152906001019060200180831161094257829003601f168201915b505050505083828151811061097757610976612335565b5b60200260200101819052506002600082815260200190815260200160002060010160009054906101000a900460ff168282815181106109b9576109b8612335565b5b602002602001019015159081151581525050808060010191505061089b565b50828282955095509550505050909192565b6060806000805b600154811015610a40576002600082815260200190815260200160002060010160009054906101000a900460ff1615610a33578180610a2f90612364565b9250505b80806001019150506109f1565b5060008167ffffffffffffffff811115610a5d57610a5c6117a9565b5b604051908082528060200260200182016040528015610a8b5781602001602082028036833780820191505090505b50905060008267ffffffffffffffff811115610aaa57610aa96117a9565b5b604051908082528060200260200182016040528015610add57816020015b6060815260200190600190039081610ac85790505b5090506000805b600154811015610c10576002600082815260200190815260200160002060010160009054906101000a900460ff1615610c035780848381518110610b2b57610b2a612335565b5b602002602001018181525050600260008281526020019081526020016000206000018054610b5890612023565b80601f0160208091040260200160405190810160405280929190818152602001828054610b8490612023565b8015610bd15780601f10610ba657610100808354040283529160200191610bd1565b820191906000526020600020905b815481529060010190602001808311610bb457829003601f168201915b5050505050838381518110610be957610be8612335565b5b60200260200101819052508180610bff90612364565b9250505b8080600101915050610ae4565b50828295509550505050509091565b600080600084815260200190815260200160002060000160008373ffffffffffffffffffffffffffffffffffffffff1673ffffffffffffffffffffffffffffffffffffffff16815260200190815260200160002060009054906101000a900460ff16905092915050565b7fa49807205ce4d355092ef5a8a18f56e8913cf4a201fbe287825b095693c21775610cb381611439565b6002600083815260200190815260200160002060010160009054906101000a900460ff16610d16576040517f08c379a0000000000000000000000000000000000000000000000000000000008152600401610d0d90611fd4565b60405180910390fd5b60006002600084815260200190815260200160002060010160006101000a81548160ff0219169083151502179055504260026000848152602001908152602001600020600301819055505050565b606080600060026000858152602001908152602001600020905060008160040180549050905060008167ffffffffffffffff811115610da657610da56117a9565b5b604051908082528060200260200182016040528015610dd957816020015b6060815260200190600190039081610dc45790505b50905060008267ffffffffffffffff811115610df857610df76117a9565b5b604051908082528060200260200182016040528015610e265781602001602082028036833780820191505090505b50905060005b83811015610f5657846004018181548110610e4a57610e49612335565b5b90600052602060002090600202016000018054610e6690612023565b80601f0160208091040260200160405190810160405280929190818152602001828054610e9290612023565b8015610edf5780601f10610eb457610100808354040283529160200191610edf565b820191906000526020600020905b815481529060010190602001808311610ec257829003601f168201915b5050505050838281518110610ef757610ef6612335565b5b6020026020010181905250846004018181548110610f1857610f17612335565b5b906000526020600020906002020160010154828281518110610f3d57610f3c612335565b5b6020026020010181815250508080600101915050610e2c565b5081819550955050505050915091565b6000801b81565b60006002600084815260200190815260200160002090508060010160009054906101000a900460ff16610fd5576040517f08c379a0000000000000000000000000000000000000000000000000000000008152600401610fcc906123f8565b60405180910390fd5b8060050160003373ffffffffffffffffffffffffffffffffffffffff1673ffffffffffffffffffffffffffffffffffffffff16815260200190815260200160002060009054906101000a900460ff16611063576040517f08c379a000000000000000000000000000000000000000000000000000000000815260040161105a90612464565b60405180910390fd5b8060060160003373ffffffffffffffffffffffffffffffffffffffff1673ffffffffffffffffffffffffffffffffffffffff16815260200190815260200160002060009054906101000a900460ff16156110f2576040517f08c379a00000000000000000000000000000000000000000000000000000000081526004016110e9906124d0565b60405180910390fd5b8060040180549050821061113b576040517f08c379a00000000000000000000000000000000000000000000000000000000081526004016111329061253c565b60405180910390fd5b80600401828154811061115157611150612335565b5b9060005260206000209060020201600101600081548092919061117390612364565b919050555060018160060160003373ffffffffffffffffffffffffffffffffffffffff1673ffffffffffffffffffffffffffffffffffffffff16815260200190815260200160002060006101000a81548160ff021916908315150217905550505050565b7fa49807205ce4d355092ef5a8a18f56e8913cf4a201fbe287825b095693c2177561120181611439565b60016002600085815260200190815260200160002060050160008473ffffffffffffffffffffffffffffffffffffffff1673ffffffffffffffffffffffffffffffffffffffff16815260200190815260200160002060006101000a81548160ff021916908315150217905550505050565b61127b8261056f565b61128481611439565b61128e8383611546565b50505050565b7fa49807205ce4d355092ef5a8a18f56e8913cf4a201fbe287825b095693c217756112be81611439565b6003826040516112ce9190612598565b908152602001604051809103902060009054906101000a900460ff161561132a576040517f08c379a0000000000000000000000000000000000000000000000000000000008152600401611321906125fb565b60405180910390fd5b60006002600060015481526020019081526020016000209050828160000190816113549190612200565b5060018160010160006101000a81548160ff021916908315150217905550428160020181905550600160038460405161138d9190612598565b908152602001604051809103902060006101000a81548160ff021916908315150217905550600160008154809291906113c590612364565b9190505550505050565b60007f01ffc9a7000000000000000000000000000000000000000000000000000000007bffffffffffffffffffffffffffffffffffffffffffffffffffffffff1916827bffffffffffffffffffffffffffffffffffffffffffffffffffffffff1916149050919050565b61144a8161144561153e565b611638565b50565b60006114598383610c1f565b61153357600160008085815260200190815260200160002060000160008473ffffffffffffffffffffffffffffffffffffffff1673ffffffffffffffffffffffffffffffffffffffff16815260200190815260200160002060006101000a81548160ff0219169083151502179055506114d061153e565b73ffffffffffffffffffffffffffffffffffffffff168273ffffffffffffffffffffffffffffffffffffffff16847f2f8788117e7eff1d82e926ec794901d17c78024a50270940304540a733656f0d60405160405180910390a460019050611538565b600090505b92915050565b600033905090565b60006115528383610c1f565b1561162d57600080600085815260200190815260200160002060000160008473ffffffffffffffffffffffffffffffffffffffff1673ffffffffffffffffffffffffffffffffffffffff16815260200190815260200160002060006101000a81548160ff0219169083151502179055506115ca61153e565b73ffffffffffffffffffffffffffffffffffffffff168273ffffffffffffffffffffffffffffffffffffffff16847ff6391f5c32d9c69d2a47ea670b442974b53935d1edc7fd64eb21e047a839171b60405160405180910390a460019050611632565b600090505b92915050565b6116428282610c1f565b6116855780826040517fe2517d3f00000000000000000000000000000000000000000000000000000000815260040161167c92919061262a565b60405180910390fd5b5050565b6000604051905090565b600080fd5b600080fd5b60007fffffffff0000000000000000000000000000000000000000000000000000000082169050919050565b6116d28161169d565b81146116dd57600080fd5b50565b6000813590506116ef816116c9565b92915050565b60006020828403121561170b5761170a611693565b5b6000611719848285016116e0565b91505092915050565b60008115159050919050565b61173781611722565b82525050565b6000602082019050611752600083018461172e565b92915050565b6000819050919050565b61176b81611758565b811461177657600080fd5b50565b60008135905061178881611762565b92915050565b600080fd5b600080fd5b6000601f19601f8301169050919050565b7f4e487b7100000000000000000000000000000000000000000000000000000000600052604160045260246000fd5b6117e182611798565b810181811067ffffffffffffffff82111715611800576117ff6117a9565b5b80604052505050565b6000611813611689565b905061181f82826117d8565b919050565b600067ffffffffffffffff82111561183f5761183e6117a9565b5b61184882611798565b9050602081019050919050565b82818337600083830152505050565b600061187761187284611824565b611809565b90508281526020810184848401111561189357611892611793565b5b61189e848285611855565b509392505050565b600082601f8301126118bb576118ba61178e565b5b81356118cb848260208601611864565b91505092915050565b600080604083850312156118eb576118ea611693565b5b60006118f985828601611779565b925050602083013567ffffffffffffffff81111561191a57611919611698565b5b611926858286016118a6565b9150509250929050565b6000819050919050565b61194381611930565b811461194e57600080fd5b50565b6000813590506119608161193a565b92915050565b60006020828403121561197c5761197b611693565b5b600061198a84828501611951565b91505092915050565b61199c81611930565b82525050565b60006020820190506119b76000830184611993565b92915050565b600073ffffffffffffffffffffffffffffffffffffffff82169050919050565b60006119e8826119bd565b9050919050565b6119f8816119dd565b8114611a0357600080fd5b50565b600081359050611a15816119ef565b92915050565b60008060408385031215611a3257611a31611693565b5b6000611a4085828601611951565b9250506020611a5185828601611a06565b9150509250929050565b611a6481611758565b82525050565b6000602082019050611a7f6000830184611a5b565b92915050565b600060208284031215611a9b57611a9a611693565b5b6000611aa984828501611779565b91505092915050565b600081519050919050565b600082825260208201905092915050565b60005b83811015611aec578082015181840152602081019050611ad1565b60008484015250505050565b6000611b0382611ab2565b611b0d8185611abd565b9350611b1d818560208601611ace565b611b2681611798565b840191505092915050565b60006080820190508181036000830152611b4b8187611af8565b9050611b5a602083018661172e565b611b676040830185611a5b565b611b746060830184611a5b565b95945050505050565b600060208284031215611b9357611b92611693565b5b600082013567ffffffffffffffff811115611bb157611bb0611698565b5b611bbd848285016118a6565b91505092915050565b600081519050919050565b600082825260208201905092915050565b6000819050602082019050919050565b611bfb81611758565b82525050565b6000611c0d8383611bf2565b60208301905092915050565b6000602082019050919050565b6000611c3182611bc6565b611c3b8185611bd1565b9350611c4683611be2565b8060005b83811015611c77578151611c5e8882611c01565b9750611c6983611c19565b925050600181019050611c4a565b5085935050505092915050565b600081519050919050565b600082825260208201905092915050565b6000819050602082019050919050565b600082825260208201905092915050565b6000611ccc82611ab2565b611cd68185611cb0565b9350611ce6818560208601611ace565b611cef81611798565b840191505092915050565b6000611d068383611cc1565b905092915050565b6000602082019050919050565b6000611d2682611c84565b611d308185611c8f565b935083602082028501611d4285611ca0565b8060005b85811015611d7e5784840389528151611d5f8582611cfa565b9450611d6a83611d0e565b925060208a01995050600181019050611d46565b50829750879550505050505092915050565b600081519050919050565b600082825260208201905092915050565b6000819050602082019050919050565b611dc581611722565b82525050565b6000611dd78383611dbc565b60208301905092915050565b6000602082019050919050565b6000611dfb82611d90565b611e058185611d9b565b9350611e1083611dac565b8060005b83811015611e41578151611e288882611dcb565b9750611e3383611de3565b925050600181019050611e14565b5085935050505092915050565b60006060820190508181036000830152611e688186611c26565b90508181036020830152611e7c8185611d1b565b90508181036040830152611e908184611df0565b9050949350505050565b60006040820190508181036000830152611eb48185611c26565b90508181036020830152611ec88184611d1b565b90509392505050565b60006040820190508181036000830152611eeb8185611d1b565b90508181036020830152611eff8184611c26565b90509392505050565b60008060408385031215611f1f57611f1e611693565b5b6000611f2d85828601611779565b9250506020611f3e85828601611779565b9150509250929050565b60008060408385031215611f5f57611f5e611693565b5b6000611f6d85828601611779565b9250506020611f7e85828601611a06565b9150509250929050565b7f456c656374696f6e206e6f742061637469766500000000000000000000000000600082015250565b6000611fbe601383611abd565b9150611fc982611f88565b602082019050919050565b60006020820190508181036000830152611fed81611fb1565b9050919050565b7f4e487b7100000000000000000000000000000000000000000000000000000000600052602260045260246000fd5b6000600282049050600182168061203b57607f821691505b60208210810361204e5761204d611ff4565b5b50919050565b60008190508160005260206000209050919050565b60006020601f8301049050919050565b600082821b905092915050565b6000600883026120b67fffffffffffffffffffffffffffffffffffffffffffffffffffffffffffffffff82612079565b6120c08683612079565b95508019841693508086168417925050509392505050565b6000819050919050565b60006120fd6120f86120f384611758565b6120d8565b611758565b9050919050565b6000819050919050565b612117836120e2565b61212b61212382612104565b848454612086565b825550505050565b600090565b612140612133565b61214b81848461210e565b505050565b5b8181101561216f57612164600082612138565b600181019050612151565b5050565b601f8211156121b45761218581612054565b61218e84612069565b8101602085101561219d578190505b6121b16121a985612069565b830182612150565b50505b505050565b600082821c905092915050565b60006121d7600019846008026121b9565b1980831691505092915050565b60006121f083836121c6565b9150826002028217905092915050565b61220982611ab2565b67ffffffffffffffff811115612222576122216117a9565b5b61222c8254612023565b612237828285612173565b600060209050601f83116001811461226a5760008415612258578287015190505b61226285826121e4565b8655506122ca565b601f19841661227886612054565b60005b828110156122a05784890151825560018201915060208501945060208101905061227b565b868310156122bd57848901516122b9601f8916826121c6565b8355505b6001600288020188555050505b505050505050565b7f4e487b7100000000000000000000000000000000000000000000000000000000600052601160045260246000fd5b600061230c82611758565b915061231783611758565b925082820390508181111561232f5761232e6122d2565b5b92915050565b7f4e487b7100000000000000000000000000000000000000000000000000000000600052603260045260246000fd5b600061236f82611758565b91507fffffffffffffffffffffffffffffffffffffffffffffffffffffffffffffffff82036123a1576123a06122d2565b5b600182019050919050565b7f456c656374696f6e206973206e6f742061637469766500000000000000000000600082015250565b60006123e2601683611abd565b91506123ed826123ac565b602082019050919050565b60006020820190508181036000830152612411816123d5565b9050919050565b7f4e6f7420656c696769626c6520746f20766f7465000000000000000000000000600082015250565b600061244e601483611abd565b915061245982612418565b602082019050919050565b6000602082019050818103600083015261247d81612441565b9050919050565b7f416c726561647920766f74656400000000000000000000000000000000000000600082015250565b60006124ba600d83611abd565b91506124c582612484565b602082019050919050565b600060208201905081810360008301526124e9816124ad565b9050919050565b7f496e76616c69642063616e646964617465000000000000000000000000000000600082015250565b6000612526601183611abd565b9150612531826124f0565b602082019050919050565b6000602082019050818103600083015261255581612519565b9050919050565b600081905092915050565b600061257282611ab2565b61257c818561255c565b935061258c818560208601611ace565b80840191505092915050565b60006125a48284612567565b915081905092915050565b7f456c656374696f6e206e616d6520616c72656164792075736564000000000000600082015250565b60006125e5601a83611abd565b91506125f0826125af565b602082019050919050565b60006020820190508181036000830152612614816125d8565b9050919050565b612624816119dd565b82525050565b600060408201905061263f600083018561261b565b61264c6020830184611993565b939250505056fea2646970667358221220deef6991e7f02dbdb9264c4cb2bf68ae47906dab64ea08980011c0fad48cfaeb64736f6c634300081c0033",
  "linkReferences": {},
  "deployedLinkReferences": {}
}